{
  "contractName": "Ownership",
  "abi": [
    {
      "inputs": [],
      "payable": false,
      "stateMutability": "nonpayable",
      "type": "constructor"
    },
    {
      "anonymous": false,
      "inputs": [
        {
          "indexed": true,
          "internalType": "address",
          "name": "owner",
          "type": "address"
        },
        {
          "indexed": true,
          "internalType": "address",
          "name": "approved",
          "type": "address"
        },
        {
          "indexed": true,
          "internalType": "uint256",
          "name": "tokenId",
          "type": "uint256"
        }
      ],
      "name": "Approval",
      "type": "event"
    },
    {
      "anonymous": false,
      "inputs": [
        {
          "indexed": true,
          "internalType": "address",
          "name": "owner",
          "type": "address"
        },
        {
          "indexed": true,
          "internalType": "address",
          "name": "operator",
          "type": "address"
        },
        {
          "indexed": false,
          "internalType": "bool",
          "name": "approved",
          "type": "bool"
        }
      ],
      "name": "ApprovalForAll",
      "type": "event"
    },
    {
      "anonymous": false,
      "inputs": [
        {
          "indexed": true,
          "internalType": "address",
          "name": "from",
          "type": "address"
        },
        {
          "indexed": true,
          "internalType": "address",
          "name": "to",
          "type": "address"
        },
        {
          "indexed": true,
          "internalType": "uint256",
          "name": "tokenId",
          "type": "uint256"
        }
      ],
      "name": "Transfer",
      "type": "event"
    },
    {
      "constant": true,
      "inputs": [
        {
          "internalType": "uint256",
          "name": "",
          "type": "uint256"
        }
      ],
      "name": "Ownerships",
      "outputs": [
        {
          "internalType": "uint256",
          "name": "ID",
          "type": "uint256"
        },
        {
          "internalType": "uint256",
          "name": "UID",
          "type": "uint256"
        },
        {
          "internalType": "uint256",
          "name": "PID",
          "type": "uint256"
        },
        {
          "internalType": "uint256",
          "name": "Batch",
          "type": "uint256"
        },
        {
          "internalType": "uint256",
          "name": "BatchID",
          "type": "uint256"
        },
        {
          "internalType": "uint256",
          "name": "price",
          "type": "uint256"
        },
        {
          "internalType": "uint256",
          "name": "time",
          "type": "uint256"
        },
        {
          "internalType": "enum Ownership.State",
          "name": "state",
          "type": "uint8"
        }
      ],
      "payable": false,
      "stateMutability": "view",
      "type": "function"
    },
    {
      "constant": true,
      "inputs": [
        {
          "internalType": "address",
          "name": "",
          "type": "address"
        }
      ],
      "name": "addressmap",
      "outputs": [
        {
          "internalType": "uint256",
          "name": "",
          "type": "uint256"
        }
      ],
      "payable": false,
      "stateMutability": "view",
      "type": "function"
    },
    {
      "constant": false,
      "inputs": [
        {
          "internalType": "address",
          "name": "to",
          "type": "address"
        },
        {
          "internalType": "uint256",
          "name": "tokenId",
          "type": "uint256"
        }
      ],
      "name": "approve",
      "outputs": [],
      "payable": false,
      "stateMutability": "nonpayable",
      "type": "function"
    },
    {
      "constant": true,
      "inputs": [
        {
          "internalType": "address",
          "name": "owner",
          "type": "address"
        }
      ],
      "name": "balanceOf",
      "outputs": [
        {
          "internalType": "uint256",
          "name": "",
          "type": "uint256"
        }
      ],
      "payable": false,
      "stateMutability": "view",
      "type": "function"
    },
    {
      "constant": true,
      "inputs": [
        {
          "internalType": "uint256",
          "name": "tokenId",
          "type": "uint256"
        }
      ],
      "name": "getApproved",
      "outputs": [
        {
          "internalType": "address",
          "name": "",
          "type": "address"
        }
      ],
      "payable": false,
      "stateMutability": "view",
      "type": "function"
    },
    {
      "constant": true,
      "inputs": [
        {
          "internalType": "address",
          "name": "owner",
          "type": "address"
        },
        {
          "internalType": "address",
          "name": "operator",
          "type": "address"
        }
      ],
      "name": "isApprovedForAll",
      "outputs": [
        {
          "internalType": "bool",
          "name": "",
          "type": "bool"
        }
      ],
      "payable": false,
      "stateMutability": "view",
      "type": "function"
    },
    {
      "constant": true,
      "inputs": [],
      "name": "name",
      "outputs": [
        {
          "internalType": "string",
          "name": "",
          "type": "string"
        }
      ],
      "payable": false,
      "stateMutability": "view",
      "type": "function"
    },
    {
      "constant": true,
      "inputs": [
        {
          "internalType": "uint256",
          "name": "tokenId",
          "type": "uint256"
        }
      ],
      "name": "ownerOf",
      "outputs": [
        {
          "internalType": "address",
          "name": "",
          "type": "address"
        }
      ],
      "payable": false,
      "stateMutability": "view",
      "type": "function"
    },
    {
      "constant": false,
      "inputs": [
        {
          "internalType": "address",
          "name": "from",
          "type": "address"
        },
        {
          "internalType": "address",
          "name": "to",
          "type": "address"
        },
        {
          "internalType": "uint256",
          "name": "tokenId",
          "type": "uint256"
        }
      ],
      "name": "safeTransferFrom",
      "outputs": [],
      "payable": false,
      "stateMutability": "nonpayable",
      "type": "function"
    },
    {
      "constant": false,
      "inputs": [
        {
          "internalType": "address",
          "name": "from",
          "type": "address"
        },
        {
          "internalType": "address",
          "name": "to",
          "type": "address"
        },
        {
          "internalType": "uint256",
          "name": "tokenId",
          "type": "uint256"
        },
        {
          "internalType": "bytes",
          "name": "_data",
          "type": "bytes"
        }
      ],
      "name": "safeTransferFrom",
      "outputs": [],
      "payable": false,
      "stateMutability": "nonpayable",
      "type": "function"
    },
    {
      "constant": false,
      "inputs": [
        {
          "internalType": "address",
          "name": "to",
          "type": "address"
        },
        {
          "internalType": "bool",
          "name": "approved",
          "type": "bool"
        }
      ],
      "name": "setApprovalForAll",
      "outputs": [],
      "payable": false,
      "stateMutability": "nonpayable",
      "type": "function"
    },
    {
      "constant": true,
      "inputs": [
        {
          "internalType": "bytes4",
          "name": "interfaceId",
          "type": "bytes4"
        }
      ],
      "name": "supportsInterface",
      "outputs": [
        {
          "internalType": "bool",
          "name": "",
          "type": "bool"
        }
      ],
      "payable": false,
      "stateMutability": "view",
      "type": "function"
    },
    {
      "constant": true,
      "inputs": [],
      "name": "symbol",
      "outputs": [
        {
          "internalType": "string",
          "name": "",
          "type": "string"
        }
      ],
      "payable": false,
      "stateMutability": "view",
      "type": "function"
    },
    {
      "constant": true,
      "inputs": [
        {
          "internalType": "uint256",
          "name": "index",
          "type": "uint256"
        }
      ],
      "name": "tokenByIndex",
      "outputs": [
        {
          "internalType": "uint256",
          "name": "",
          "type": "uint256"
        }
      ],
      "payable": false,
      "stateMutability": "view",
      "type": "function"
    },
    {
      "constant": true,
      "inputs": [
        {
          "internalType": "address",
          "name": "owner",
          "type": "address"
        },
        {
          "internalType": "uint256",
          "name": "index",
          "type": "uint256"
        }
      ],
      "name": "tokenOfOwnerByIndex",
      "outputs": [
        {
          "internalType": "uint256",
          "name": "",
          "type": "uint256"
        }
      ],
      "payable": false,
      "stateMutability": "view",
      "type": "function"
    },
    {
      "constant": true,
      "inputs": [
        {
          "internalType": "uint256",
          "name": "tokenId",
          "type": "uint256"
        }
      ],
      "name": "tokenURI",
      "outputs": [
        {
          "internalType": "string",
          "name": "",
          "type": "string"
        }
      ],
      "payable": false,
      "stateMutability": "view",
      "type": "function"
    },
    {
      "constant": true,
      "inputs": [],
      "name": "totalBatch",
      "outputs": [
        {
          "internalType": "uint256",
          "name": "",
          "type": "uint256"
        }
      ],
      "payable": false,
      "stateMutability": "view",
      "type": "function"
    },
    {
      "constant": true,
      "inputs": [],
      "name": "totalSupply",
      "outputs": [
        {
          "internalType": "uint256",
          "name": "",
          "type": "uint256"
        }
      ],
      "payable": false,
      "stateMutability": "view",
      "type": "function"
    },
    {
      "constant": false,
      "inputs": [
        {
          "internalType": "address",
          "name": "from",
          "type": "address"
        },
        {
          "internalType": "address",
          "name": "to",
          "type": "address"
        },
        {
          "internalType": "uint256",
          "name": "tokenId",
          "type": "uint256"
        }
      ],
      "name": "transferFrom",
      "outputs": [],
      "payable": false,
      "stateMutability": "nonpayable",
      "type": "function"
    },
    {
      "constant": true,
      "inputs": [
        {
          "internalType": "uint256",
          "name": "",
          "type": "uint256"
        }
      ],
      "name": "usermap",
      "outputs": [
        {
          "internalType": "address",
          "name": "",
          "type": "address"
        }
      ],
      "payable": false,
      "stateMutability": "view",
      "type": "function"
    },
    {
      "constant": false,
      "inputs": [
        {
          "internalType": "uint256",
          "name": "_productID",
          "type": "uint256"
        },
        {
          "internalType": "uint256",
          "name": "_userID",
          "type": "uint256"
        },
        {
          "internalType": "uint256",
          "name": "_batch",
          "type": "uint256"
        },
        {
          "internalType": "uint256",
          "name": "_batchID",
          "type": "uint256"
        },
        {
          "internalType": "uint256",
          "name": "_price",
          "type": "uint256"
        }
      ],
      "name": "mint",
      "outputs": [],
      "payable": false,
      "stateMutability": "nonpayable",
      "type": "function"
    },
    {
      "constant": false,
      "inputs": [
        {
          "internalType": "uint256",
          "name": "batch_size",
          "type": "uint256"
        },
        {
          "internalType": "uint256",
          "name": "_productID",
          "type": "uint256"
        },
        {
          "internalType": "uint256",
          "name": "_price",
          "type": "uint256"
        }
      ],
      "name": "batch_mint",
      "outputs": [],
      "payable": false,
      "stateMutability": "nonpayable",
      "type": "function"
    },
    {
      "constant": true,
      "inputs": [
        {
          "internalType": "uint256",
          "name": "UID",
          "type": "uint256"
        }
      ],
      "name": "getOwnershipByUser",
      "outputs": [
        {
          "internalType": "uint256[]",
          "name": "",
          "type": "uint256[]"
        }
      ],
      "payable": false,
      "stateMutability": "view",
      "type": "function"
    },
    {
      "constant": true,
      "inputs": [
        {
          "internalType": "uint256",
          "name": "UID",
          "type": "uint256"
        }
      ],
      "name": "getTotalOwnedProduct",
      "outputs": [
        {
          "internalType": "uint256",
          "name": "",
          "type": "uint256"
        }
      ],
      "payable": false,
      "stateMutability": "view",
      "type": "function"
    },
    {
      "constant": false,
      "inputs": [
        {
          "internalType": "uint256",
          "name": "UID",
          "type": "uint256"
        },
        {
          "internalType": "address",
          "name": "uad",
          "type": "address"
        }
      ],
      "name": "createUser",
      "outputs": [],
      "payable": false,
      "stateMutability": "nonpayable",
      "type": "function"
    },
    {
      "constant": true,
      "inputs": [
        {
          "internalType": "uint256",
          "name": "PID",
          "type": "uint256"
        }
      ],
      "name": "getOwnerByProduct",
      "outputs": [
        {
          "internalType": "uint256[]",
          "name": "",
          "type": "uint256[]"
        }
      ],
      "payable": false,
      "stateMutability": "view",
      "type": "function"
    },
    {
      "constant": false,
      "inputs": [
        {
          "internalType": "uint256",
          "name": "_userID",
          "type": "uint256"
        },
        {
          "internalType": "uint256",
          "name": "id",
          "type": "uint256"
        }
      ],
      "name": "update",
      "outputs": [],
      "payable": true,
      "stateMutability": "payable",
      "type": "function"
    },
    {
      "constant": false,
      "inputs": [
        {
          "internalType": "uint256",
          "name": "_userID",
          "type": "uint256"
        },
        {
          "internalType": "address",
          "name": "userAddress",
          "type": "address"
        }
      ],
      "name": "addUser",
      "outputs": [],
      "payable": false,
      "stateMutability": "nonpayable",
      "type": "function"
    },
    {
      "constant": false,
      "inputs": [
        {
          "internalType": "uint256",
          "name": "_tokenId",
          "type": "uint256"
        }
      ],
      "name": "burn",
      "outputs": [],
      "payable": false,
      "stateMutability": "nonpayable",
      "type": "function"
    }
  ],
  "bytecode": "0x60806040523480156200001157600080fd5b506040518060400160405280600981526020017f4f776e65727368697000000000000000000000000000000000000000000000008152506040518060400160405280600981526020017f4f574e45525348495000000000000000000000000000000000000000000000008152508181620000986301ffc9a760e01b6200012460201b60201c565b620000b06380ac58cd60e01b6200012460201b60201c565b620000c863780e9d6360e01b6200012460201b60201c565b8160099080519060200190620000e09291906200022d565b5080600a9080519060200190620000f99291906200022d565b5062000112635b5e139f60e01b6200012460201b60201c565b505050506000601081905550620002dc565b63ffffffff60e01b817bffffffffffffffffffffffffffffffffffffffffffffffffffffffff19161415620001c1576040517f08c379a000000000000000000000000000000000000000000000000000000000815260040180806020018281038252601c8152602001807f4552433136353a20696e76616c696420696e746572666163652069640000000081525060200191505060405180910390fd5b6001600080837bffffffffffffffffffffffffffffffffffffffffffffffffffffffff19167bffffffffffffffffffffffffffffffffffffffffffffffffffffffff1916815260200190815260200160002060006101000a81548160ff02191690831515021790555050565b828054600181600116156101000203166002900490600052602060002090601f016020900481019282601f106200027057805160ff1916838001178555620002a1565b82800160010185558215620002a1579182015b82811115620002a057825182559160200191906001019062000283565b5b509050620002b09190620002b4565b5090565b620002d991905b80821115620002d5576000816000905550600101620002bb565b5090565b90565b61336880620002ec6000396000f3fe6080604052600436106101c25760003560e01c80636352211e116100f7578063b1ebafae11610095578063c87b56dd11610064578063c87b56dd14610c63578063cffa082b14610d17578063e7e9555d14610d66578063e985e9c514610df4576101c2565b8063b1ebafae146109eb578063b854b00f14610a7b578063b88d4fde14610ad6578063c72193cd14610be8576101c2565b806384f7e9c4116100d157806384f7e9c41461087057806395d89b411461089b578063a22cb4651461092b578063ae3dfa2814610988576101c2565b80636352211e1461072b57806370a08231146107a65780637d7186d51461080b576101c2565b80632fb565e811610164578063459440481161013e57806345944048146105a25780634f6ccce714610632578063518a8fce1461068157806358d9fa04146106d0576101c2565b80632fb565e8146104b457806342842e0e146104ec57806342966c6814610567576101c2565b8063095ea7b3116101a0578063095ea7b31461034457806318160ddd1461039f57806323b872dd146103ca5780632f745c5914610445576101c2565b806301ffc9a7146101c757806306fdde0314610239578063081812fc146102c9575b600080fd5b3480156101d357600080fd5b5061021f600480360360208110156101ea57600080fd5b8101908080357bffffffffffffffffffffffffffffffffffffffffffffffffffffffff19169060200190929190505050610e7d565b604051808215151515815260200191505060405180910390f35b34801561024557600080fd5b5061024e610ee4565b6040518080602001828103825283818151815260200191508051906020019080838360005b8381101561028e578082015181840152602081019050610273565b50505050905090810190601f1680156102bb5780820380516001836020036101000a031916815260200191505b509250505060405180910390f35b3480156102d557600080fd5b50610302600480360360208110156102ec57600080fd5b8101908080359060200190929190505050610f86565b604051808273ffffffffffffffffffffffffffffffffffffffff1673ffffffffffffffffffffffffffffffffffffffff16815260200191505060405180910390f35b34801561035057600080fd5b5061039d6004803603604081101561036757600080fd5b81019080803573ffffffffffffffffffffffffffffffffffffffff16906020019092919080359060200190929190505050611021565b005b3480156103ab57600080fd5b506103b46111fa565b6040518082815260200191505060405180910390f35b3480156103d657600080fd5b50610443600480360360608110156103ed57600080fd5b81019080803573ffffffffffffffffffffffffffffffffffffffff169060200190929190803573ffffffffffffffffffffffffffffffffffffffff16906020019092919080359060200190929190505050611207565b005b34801561045157600080fd5b5061049e6004803603604081101561046857600080fd5b81019080803573ffffffffffffffffffffffffffffffffffffffff16906020019092919080359060200190929190505050611276565b6040518082815260200191505060405180910390f35b6104ea600480360360408110156104ca57600080fd5b810190808035906020019092919080359060200190929190505050611335565b005b3480156104f857600080fd5b506105656004803603606081101561050f57600080fd5b81019080803573ffffffffffffffffffffffffffffffffffffffff169060200190929190803573ffffffffffffffffffffffffffffffffffffffff16906020019092919080359060200190929190505050611439565b005b34801561057357600080fd5b506105a06004803603602081101561058a57600080fd5b8101908080359060200190929190505050611459565b005b3480156105ae57600080fd5b506105db600480360360208110156105c557600080fd5b8101908080359060200190929190505050611481565b6040518080602001828103825283818151815260200191508051906020019060200280838360005b8381101561061e578082015181840152602081019050610603565b505050509050019250505060405180910390f35b34801561063e57600080fd5b5061066b6004803603602081101561065557600080fd5b81019080803590602001909291905050506114ec565b6040518082815260200191505060405180910390f35b34801561068d57600080fd5b506106ce600480360360608110156106a457600080fd5b8101908080359060200190929190803590602001909291908035906020019092919050505061156c565b005b3480156106dc57600080fd5b50610729600480360360408110156106f357600080fd5b8101908080359060200190929190803573ffffffffffffffffffffffffffffffffffffffff1690602001909291905050506115a7565b005b34801561073757600080fd5b506107646004803603602081101561074e57600080fd5b81019080803590602001909291905050506115fd565b604051808273ffffffffffffffffffffffffffffffffffffffff1673ffffffffffffffffffffffffffffffffffffffff16815260200191505060405180910390f35b3480156107b257600080fd5b506107f5600480360360208110156107c957600080fd5b81019080803573ffffffffffffffffffffffffffffffffffffffff1690602001909291905050506116c5565b6040518082815260200191505060405180910390f35b34801561081757600080fd5b5061085a6004803603602081101561082e57600080fd5b81019080803573ffffffffffffffffffffffffffffffffffffffff16906020019092919050505061179a565b6040518082815260200191505060405180910390f35b34801561087c57600080fd5b506108856117b2565b6040518082815260200191505060405180910390f35b3480156108a757600080fd5b506108b06117b8565b6040518080602001828103825283818151815260200191508051906020019080838360005b838110156108f05780820151818401526020810190506108d5565b50505050905090810190601f16801561091d5780820380516001836020036101000a031916815260200191505b509250505060405180910390f35b34801561093757600080fd5b506109866004803603604081101561094e57600080fd5b81019080803573ffffffffffffffffffffffffffffffffffffffff16906020019092919080351515906020019092919050505061185a565b005b34801561099457600080fd5b506109e9600480360360a08110156109ab57600080fd5b8101908080359060200190929190803590602001909291908035906020019092919080359060200190929190803590602001909291905050506119fd565b005b3480156109f757600080fd5b50610a2460048036036020811015610a0e57600080fd5b8101908080359060200190929190505050611d2f565b6040518080602001828103825283818151815260200191508051906020019060200280838360005b83811015610a67578082015181840152602081019050610a4c565b505050509050019250505060405180910390f35b348015610a8757600080fd5b50610ad460048036036040811015610a9e57600080fd5b8101908080359060200190929190803573ffffffffffffffffffffffffffffffffffffffff169060200190929190505050611d9a565b005b348015610ae257600080fd5b50610be660048036036080811015610af957600080fd5b81019080803573ffffffffffffffffffffffffffffffffffffffff169060200190929190803573ffffffffffffffffffffffffffffffffffffffff1690602001909291908035906020019092919080359060200190640100000000811115610b6057600080fd5b820183602082011115610b7257600080fd5b80359060200191846001830284011164010000000083111715610b9457600080fd5b91908080601f016020809104026020016040519081016040528093929190818152602001838380828437600081840152601f19601f820116905080830192505050505050509192919290505050611e34565b005b348015610bf457600080fd5b50610c2160048036036020811015610c0b57600080fd5b8101908080359060200190929190505050611ea6565b604051808273ffffffffffffffffffffffffffffffffffffffff1673ffffffffffffffffffffffffffffffffffffffff16815260200191505060405180910390f35b348015610c6f57600080fd5b50610c9c60048036036020811015610c8657600080fd5b8101908080359060200190929190505050611ed9565b6040518080602001828103825283818151815260200191508051906020019080838360005b83811015610cdc578082015181840152602081019050610cc1565b50505050905090810190601f168015610d095780820380516001836020036101000a031916815260200191505b509250505060405180910390f35b348015610d2357600080fd5b50610d5060048036036020811015610d3a57600080fd5b8101908080359060200190929190505050611fec565b6040518082815260200191505060405180910390f35b348015610d7257600080fd5b50610d9f60048036036020811015610d8957600080fd5b810190808035906020019092919050505061200c565b60405180898152602001888152602001878152602001868152602001858152602001848152602001838152602001826001811115610dd957fe5b60ff1681526020019850505050505050505060405180910390f35b348015610e0057600080fd5b50610e6360048036036040811015610e1757600080fd5b81019080803573ffffffffffffffffffffffffffffffffffffffff169060200190929190803573ffffffffffffffffffffffffffffffffffffffff16906020019092919050505061206e565b604051808215151515815260200191505060405180910390f35b6000806000837bffffffffffffffffffffffffffffffffffffffffffffffffffffffff19167bffffffffffffffffffffffffffffffffffffffffffffffffffffffff1916815260200190815260200160002060009054906101000a900460ff169050919050565b606060098054600181600116156101000203166002900480601f016020809104026020016040519081016040528092919081815260200182805460018160011615610100020316600290048015610f7c5780601f10610f5157610100808354040283529160200191610f7c565b820191906000526020600020905b815481529060010190602001808311610f5f57829003601f168201915b5050505050905090565b6000610f9182612102565b610fe6576040517f08c379a000000000000000000000000000000000000000000000000000000000815260040180806020018281038252602c81526020018061320d602c913960400191505060405180910390fd5b6002600083815260200190815260200160002060009054906101000a900473ffffffffffffffffffffffffffffffffffffffff169050919050565b600061102c826115fd565b90508073ffffffffffffffffffffffffffffffffffffffff168373ffffffffffffffffffffffffffffffffffffffff1614156110b3576040517f08c379a00000000000000000000000000000000000000000000000000000000081526004018080602001828103825260218152602001806132916021913960400191505060405180910390fd5b8073ffffffffffffffffffffffffffffffffffffffff163373ffffffffffffffffffffffffffffffffffffffff1614806110f357506110f2813361206e565b5b611148576040517f08c379a00000000000000000000000000000000000000000000000000000000081526004018080602001828103825260388152602001806131826038913960400191505060405180910390fd5b826002600084815260200190815260200160002060006101000a81548173ffffffffffffffffffffffffffffffffffffffff021916908373ffffffffffffffffffffffffffffffffffffffff160217905550818373ffffffffffffffffffffffffffffffffffffffff168273ffffffffffffffffffffffffffffffffffffffff167f8c5be1e5ebec7d5bd14f71427d1e84f3dd0314c0f7b2291e5b200ac8c7c3b92560405160405180910390a4505050565b6000600780549050905090565b6112113382612174565b611266576040517f08c379a00000000000000000000000000000000000000000000000000000000081526004018080602001828103825260318152602001806132b26031913960400191505060405180910390fd5b611271838383612268565b505050565b6000611281836116c5565b82106112d8576040517f08c379a000000000000000000000000000000000000000000000000000000000815260040180806020018281038252602b8152602001806130d5602b913960400191505060405180910390fd5b600560008473ffffffffffffffffffffffffffffffffffffffff1673ffffffffffffffffffffffffffffffffffffffff168152602001908152602001600020828154811061132257fe5b9060005260206000200154905092915050565b81600e828154811061134357fe5b9060005260206000209060080201600101819055506000600e828154811061136757fe5b906000526020600020906008020160070160006101000a81548160ff0219169083600181111561139357fe5b021790555042600e82815481106113a657fe5b90600052602060002090600802016006018190555060126000838152602001908152602001600020819080600181540180825580915050906001820390600052602060002001600090919290919091505550601360008281526020019081526020016000208290806001815401808255809150509060018203906000526020600020016000909192909190915055505050565b61145483838360405180602001604052806000815250611e34565b505050565b6114633382612174565b61146c57600080fd5b61147e611478826115fd565b8261228c565b50565b6060601360008381526020019081526020016000208054806020026020016040519081016040528092919081815260200182805480156114e057602002820191906000526020600020905b8154815260200190600101908083116114cc575b50505050509050919050565b60006114f66111fa565b821061154d576040517f08c379a000000000000000000000000000000000000000000000000000000000815260040180806020018281038252602c8152602001806132e3602c913960400191505060405180910390fd5b6007828154811061155a57fe5b90600052602060002001549050919050565b60016010540160108190555060008090505b838110156115a15761159683600060105484866119fd565b80600101905061157e565b50505050565b80600c600084815260200190815260200160002060006101000a81548173ffffffffffffffffffffffffffffffffffffffff021916908373ffffffffffffffffffffffffffffffffffffffff1602179055505050565b6000806001600084815260200190815260200160002060009054906101000a900473ffffffffffffffffffffffffffffffffffffffff169050600073ffffffffffffffffffffffffffffffffffffffff168173ffffffffffffffffffffffffffffffffffffffff1614156116bc576040517f08c379a00000000000000000000000000000000000000000000000000000000081526004018080602001828103825260298152602001806131e46029913960400191505060405180910390fd5b80915050919050565b60008073ffffffffffffffffffffffffffffffffffffffff168273ffffffffffffffffffffffffffffffffffffffff16141561174c576040517f08c379a000000000000000000000000000000000000000000000000000000000815260040180806020018281038252602a8152602001806131ba602a913960400191505060405180910390fd5b611793600360008473ffffffffffffffffffffffffffffffffffffffff1673ffffffffffffffffffffffffffffffffffffffff1681526020019081526020016000206122e9565b9050919050565b600d6020528060005260406000206000915090505481565b60105481565b6060600a8054600181600116156101000203166002900480601f0160208091040260200160405190810160405280929190818152602001828054600181600116156101000203166002900480156118505780601f1061182557610100808354040283529160200191611850565b820191906000526020600020905b81548152906001019060200180831161183357829003601f168201915b5050505050905090565b3373ffffffffffffffffffffffffffffffffffffffff168273ffffffffffffffffffffffffffffffffffffffff1614156118fc576040517f08c379a00000000000000000000000000000000000000000000000000000000081526004018080602001828103825260198152602001807f4552433732313a20617070726f766520746f2063616c6c65720000000000000081525060200191505060405180910390fd5b80600460003373ffffffffffffffffffffffffffffffffffffffff1673ffffffffffffffffffffffffffffffffffffffff16815260200190815260200160002060008473ffffffffffffffffffffffffffffffffffffffff1673ffffffffffffffffffffffffffffffffffffffff16815260200190815260200160002060006101000a81548160ff0219169083151502179055508173ffffffffffffffffffffffffffffffffffffffff163373ffffffffffffffffffffffffffffffffffffffff167f17307eab39ab6107e8899845ad3d59bd9653f200f220920489ca2b5937696c3183604051808215151515815260200191505060405180910390a35050565b6000600e805490509050600e60405180610100016040528083815260200187815260200188815260200186815260200185815260200184815260200160008152602001600180811115611a4c57fe5b81525090806001815401808255809150509060018203906000526020600020906008020160009091929091909150600082015181600001556020820151816001015560408201518160020155606082015181600301556080820151816004015560a0820151816005015560c0820151816006015560e08201518160070160006101000a81548160ff02191690836001811115611ae457fe5b0217905550505050611af633826122f7565b600e6001600e805490500381548110611b0b57fe5b90600052602060002090600802016015600088815260200190815260200160002060008681526020019081526020016000206000858152602001908152602001600020600082015481600001556001820154816001015560028201548160020155600382015481600301556004820154816004015560058201548160050155600682015481600601556007820160009054906101000a900460ff168160070160006101000a81548160ff02191690836001811115611bc557fe5b02179055509050506012600086815260200190815260200160002081908060018154018082558091505090600182039060005260206000200160009091929091909150555060136000878152602001908152602001600020859080600181540180825580915050906001820390600052602060002001600090919290919091505550600f6000858152602001908152602001600020600e6001600e805490500381548110611c6f57fe5b906000526020600020906008020190806001815401808255809150509060018203906000526020600020906008020160009091929091909150600082015481600001556001820154816001015560028201548160020155600382015481600301556004820154816004015560058201548160050155600682015481600601556007820160009054906101000a900460ff168160070160006101000a81548160ff02191690836001811115611d1f57fe5b0217905550505050505050505050565b606060126000838152602001908152602001600020805480602002602001604051908101604052809291908181526020018280548015611d8e57602002820191906000526020600020905b815481526020019060010190808311611d7a575b50505050509050919050565b80600c600084815260200190815260200160002060006101000a81548173ffffffffffffffffffffffffffffffffffffffff021916908373ffffffffffffffffffffffffffffffffffffffff16021790555081600d60008373ffffffffffffffffffffffffffffffffffffffff1673ffffffffffffffffffffffffffffffffffffffff168152602001908152602001600020819055505050565b611e3f848484611207565b611e4b84848484612318565b611ea0576040517f08c379a00000000000000000000000000000000000000000000000000000000081526004018080602001828103825260328152602001806131006032913960400191505060405180910390fd5b50505050565b600c6020528060005260406000206000915054906101000a900473ffffffffffffffffffffffffffffffffffffffff1681565b6060611ee482612102565b611f39576040517f08c379a000000000000000000000000000000000000000000000000000000000815260040180806020018281038252602f815260200180613262602f913960400191505060405180910390fd5b600b60008381526020019081526020016000208054600181600116156101000203166002900480601f016020809104026020016040519081016040528092919081815260200182805460018160011615610100020316600290048015611fe05780601f10611fb557610100808354040283529160200191611fe0565b820191906000526020600020905b815481529060010190602001808311611fc357829003601f168201915b50505050509050919050565b600060126000838152602001908152602001600020805490509050919050565b600e818154811061201957fe5b90600052602060002090600802016000915090508060000154908060010154908060020154908060030154908060040154908060050154908060060154908060070160009054906101000a900460ff16905088565b6000600460008473ffffffffffffffffffffffffffffffffffffffff1673ffffffffffffffffffffffffffffffffffffffff16815260200190815260200160002060008373ffffffffffffffffffffffffffffffffffffffff1673ffffffffffffffffffffffffffffffffffffffff16815260200190815260200160002060009054906101000a900460ff16905092915050565b6000806001600084815260200190815260200160002060009054906101000a900473ffffffffffffffffffffffffffffffffffffffff169050600073ffffffffffffffffffffffffffffffffffffffff168173ffffffffffffffffffffffffffffffffffffffff161415915050919050565b600061217f82612102565b6121d4576040517f08c379a000000000000000000000000000000000000000000000000000000000815260040180806020018281038252602c815260200180613156602c913960400191505060405180910390fd5b60006121df836115fd565b90508073ffffffffffffffffffffffffffffffffffffffff168473ffffffffffffffffffffffffffffffffffffffff16148061224e57508373ffffffffffffffffffffffffffffffffffffffff1661223684610f86565b73ffffffffffffffffffffffffffffffffffffffff16145b8061225f575061225e818561206e565b5b91505092915050565b612273838383612501565b61227d838261275c565b61228782826128fa565b505050565b61229682826129c1565b6000600b6000838152602001908152602001600020805460018160011615610100020316600290049050146122e557600b600082815260200190815260200160002060006122e4919061303b565b5b5050565b600081600001549050919050565b61230182826129fb565b61230b82826128fa565b61231481612c13565b5050565b60006123398473ffffffffffffffffffffffffffffffffffffffff16612c5f565b61234657600190506124f9565b60008473ffffffffffffffffffffffffffffffffffffffff1663150b7a02338887876040518563ffffffff1660e01b8152600401808573ffffffffffffffffffffffffffffffffffffffff1673ffffffffffffffffffffffffffffffffffffffff1681526020018473ffffffffffffffffffffffffffffffffffffffff1673ffffffffffffffffffffffffffffffffffffffff16815260200183815260200180602001828103825283818151815260200191508051906020019080838360005b83811015612421578082015181840152602081019050612406565b50505050905090810190601f16801561244e5780820380516001836020036101000a031916815260200191505b5095505050505050602060405180830381600087803b15801561247057600080fd5b505af1158015612484573d6000803e3d6000fd5b505050506040513d602081101561249a57600080fd5b8101908080519060200190929190505050905063150b7a0260e01b7bffffffffffffffffffffffffffffffffffffffffffffffffffffffff1916817bffffffffffffffffffffffffffffffffffffffffffffffffffffffff1916149150505b949350505050565b8273ffffffffffffffffffffffffffffffffffffffff16612521826115fd565b73ffffffffffffffffffffffffffffffffffffffff161461258d576040517f08c379a00000000000000000000000000000000000000000000000000000000081526004018080602001828103825260298152602001806132396029913960400191505060405180910390fd5b600073ffffffffffffffffffffffffffffffffffffffff168273ffffffffffffffffffffffffffffffffffffffff161415612613576040517f08c379a00000000000000000000000000000000000000000000000000000000081526004018080602001828103825260248152602001806131326024913960400191505060405180910390fd5b61261c81612c72565b612663600360008573ffffffffffffffffffffffffffffffffffffffff1673ffffffffffffffffffffffffffffffffffffffff168152602001908152602001600020612d30565b6126aa600360008473ffffffffffffffffffffffffffffffffffffffff1673ffffffffffffffffffffffffffffffffffffffff168152602001908152602001600020612d53565b816001600083815260200190815260200160002060006101000a81548173ffffffffffffffffffffffffffffffffffffffff021916908373ffffffffffffffffffffffffffffffffffffffff160217905550808273ffffffffffffffffffffffffffffffffffffffff168473ffffffffffffffffffffffffffffffffffffffff167fddf252ad1be2c89b69c2b068fc378daa952ba7f163c4a11628f55a4df523b3ef60405160405180910390a4505050565b60006127b46001600560008673ffffffffffffffffffffffffffffffffffffffff1673ffffffffffffffffffffffffffffffffffffffff16815260200190815260200160002080549050612d6990919063ffffffff16565b90506000600660008481526020019081526020016000205490508181146128a1576000600560008673ffffffffffffffffffffffffffffffffffffffff1673ffffffffffffffffffffffffffffffffffffffff168152602001908152602001600020838154811061282157fe5b9060005260206000200154905080600560008773ffffffffffffffffffffffffffffffffffffffff1673ffffffffffffffffffffffffffffffffffffffff168152602001908152602001600020838154811061287957fe5b9060005260206000200181905550816006600083815260200190815260200160002081905550505b600560008573ffffffffffffffffffffffffffffffffffffffff1673ffffffffffffffffffffffffffffffffffffffff1681526020019081526020016000208054809190600190036128f39190613083565b5050505050565b600560008373ffffffffffffffffffffffffffffffffffffffff1673ffffffffffffffffffffffffffffffffffffffff168152602001908152602001600020805490506006600083815260200190815260200160002081905550600560008373ffffffffffffffffffffffffffffffffffffffff1673ffffffffffffffffffffffffffffffffffffffff1681526020019081526020016000208190806001815401808255809150509060018203906000526020600020016000909192909190915055505050565b6129cb8282612df2565b6129d5828261275c565b600060066000838152602001908152602001600020819055506129f781612f81565b5050565b600073ffffffffffffffffffffffffffffffffffffffff168273ffffffffffffffffffffffffffffffffffffffff161415612a9e576040517f08c379a00000000000000000000000000000000000000000000000000000000081526004018080602001828103825260208152602001807f4552433732313a206d696e7420746f20746865207a65726f206164647265737381525060200191505060405180910390fd5b612aa781612102565b15612b1a576040517f08c379a000000000000000000000000000000000000000000000000000000000815260040180806020018281038252601c8152602001807f4552433732313a20746f6b656e20616c7265616479206d696e7465640000000081525060200191505060405180910390fd5b816001600083815260200190815260200160002060006101000a81548173ffffffffffffffffffffffffffffffffffffffff021916908373ffffffffffffffffffffffffffffffffffffffff160217905550612bb3600360008473ffffffffffffffffffffffffffffffffffffffff1673ffffffffffffffffffffffffffffffffffffffff168152602001908152602001600020612d53565b808273ffffffffffffffffffffffffffffffffffffffff16600073ffffffffffffffffffffffffffffffffffffffff167fddf252ad1be2c89b69c2b068fc378daa952ba7f163c4a11628f55a4df523b3ef60405160405180910390a45050565b6007805490506008600083815260200190815260200160002081905550600781908060018154018082558091505090600182039060005260206000200160009091929091909150555050565b600080823b905060008111915050919050565b600073ffffffffffffffffffffffffffffffffffffffff166002600083815260200190815260200160002060009054906101000a900473ffffffffffffffffffffffffffffffffffffffff1673ffffffffffffffffffffffffffffffffffffffff1614612d2d5760006002600083815260200190815260200160002060006101000a81548173ffffffffffffffffffffffffffffffffffffffff021916908373ffffffffffffffffffffffffffffffffffffffff1602179055505b50565b612d4860018260000154612d6990919063ffffffff16565b816000018190555050565b6001816000016000828254019250508190555050565b600082821115612de1576040517f08c379a000000000000000000000000000000000000000000000000000000000815260040180806020018281038252601e8152602001807f536166654d6174683a207375627472616374696f6e206f766572666c6f77000081525060200191505060405180910390fd5b600082840390508091505092915050565b8173ffffffffffffffffffffffffffffffffffffffff16612e12826115fd565b73ffffffffffffffffffffffffffffffffffffffff1614612e7e576040517f08c379a000000000000000000000000000000000000000000000000000000000815260040180806020018281038252602581526020018061330f6025913960400191505060405180910390fd5b612e8781612c72565b612ece600360008473ffffffffffffffffffffffffffffffffffffffff1673ffffffffffffffffffffffffffffffffffffffff168152602001908152602001600020612d30565b60006001600083815260200190815260200160002060006101000a81548173ffffffffffffffffffffffffffffffffffffffff021916908373ffffffffffffffffffffffffffffffffffffffff16021790555080600073ffffffffffffffffffffffffffffffffffffffff168373ffffffffffffffffffffffffffffffffffffffff167fddf252ad1be2c89b69c2b068fc378daa952ba7f163c4a11628f55a4df523b3ef60405160405180910390a45050565b6000612f9c6001600780549050612d6990919063ffffffff16565b9050600060086000848152602001908152602001600020549050600060078381548110612fc557fe5b906000526020600020015490508060078381548110612fe057fe5b9060005260206000200181905550816008600083815260200190815260200160002081905550600780548091906001900361301b9190613083565b506000600860008681526020019081526020016000208190555050505050565b50805460018160011615610100020316600290046000825580601f106130615750613080565b601f01602090049060005260206000209081019061307f91906130af565b5b50565b8154818355818111156130aa578183600052602060002091820191016130a991906130af565b5b505050565b6130d191905b808211156130cd5760008160009055506001016130b5565b5090565b9056fe455243373231456e756d657261626c653a206f776e657220696e646578206f7574206f6620626f756e64734552433732313a207472616e7366657220746f206e6f6e20455243373231526563656976657220696d706c656d656e7465724552433732313a207472616e7366657220746f20746865207a65726f20616464726573734552433732313a206f70657261746f7220717565727920666f72206e6f6e6578697374656e7420746f6b656e4552433732313a20617070726f76652063616c6c6572206973206e6f74206f776e6572206e6f7220617070726f76656420666f7220616c6c4552433732313a2062616c616e636520717565727920666f7220746865207a65726f20616464726573734552433732313a206f776e657220717565727920666f72206e6f6e6578697374656e7420746f6b656e4552433732313a20617070726f76656420717565727920666f72206e6f6e6578697374656e7420746f6b656e4552433732313a207472616e73666572206f6620746f6b656e2074686174206973206e6f74206f776e4552433732314d657461646174613a2055524920717565727920666f72206e6f6e6578697374656e7420746f6b656e4552433732313a20617070726f76616c20746f2063757272656e74206f776e65724552433732313a207472616e736665722063616c6c6572206973206e6f74206f776e6572206e6f7220617070726f766564455243373231456e756d657261626c653a20676c6f62616c20696e646578206f7574206f6620626f756e64734552433732313a206275726e206f6620746f6b656e2074686174206973206e6f74206f776ea265627a7a723158202bb1bb27cfd77cf609c30fd8df95a3fa10cb02fa5b9251bf0e72063a445ef58464736f6c63430005100032",
  "source": "pragma solidity 0.5.16;\r\n// pragma experimental ABIEncoderV2;\r\n\r\nimport \"./ERC721Full.sol\";\r\n\r\ncontract Ownership is ERC721Full {\r\n    enum State {\r\n        Purchased,\r\n        OnSale\r\n    }\r\n\r\n    mapping(uint => address) public usermap;\r\n    mapping(address => uint) public addressmap;\r\n\r\n    struct ProductOwn {\r\n        uint256 ID;\r\n        uint UID;\r\n        uint PID;\r\n        uint Batch;\r\n        uint BatchID;\r\n        uint price;\r\n        uint time;\r\n        State state;\r\n    }\r\n\r\n    ProductOwn[] public Ownerships;\r\n    mapping(uint => ProductOwn[]) OwnershipsBatch;\r\n    uint public totalBatch;\r\n    // mapping\r\n    mapping(uint => ProductOwn[]) OwnershipByBatch;\r\n    mapping(uint => uint[]) OwnershipByUser;\r\n    mapping(uint => uint[]) OwnerByProduct;\r\n    mapping(uint => mapping(uint => bool)) OwnerCheck;\r\n    mapping(uint => mapping(uint => mapping(uint => ProductOwn))) OwnerSearch;\r\n\r\n    constructor() public ERC721Full(\"Ownership\", \"OWNERSHIP\") {\r\n        totalBatch = 0;\r\n    }\r\n\r\n    // function getPrice() public view returns(uint256) {\r\n    //   return price;\r\n    // }\r\n\r\n    function mint(\r\n        uint _productID,\r\n        uint _userID,\r\n        uint _batch,\r\n        uint _batchID,\r\n        uint _price\r\n    ) public {\r\n        // bytes32 hashed = HashCourse(_course);\r\n        // require(!OwnerCheck[_productID][_userID]);\r\n        uint _id = Ownerships.length;\r\n        Ownerships.push(\r\n            ProductOwn({\r\n                ID: _id,\r\n                UID: _userID,\r\n                PID: _productID,\r\n                Batch: _batch,\r\n                BatchID: _batchID,\r\n                price: _price,\r\n                time: 0,\r\n                state: State.OnSale\r\n            })\r\n        );\r\n\r\n        _mint(msg.sender, _id);\r\n        OwnerSearch[_productID][_batch][_batchID] = Ownerships[\r\n            Ownerships.length - 1\r\n        ];\r\n        OwnershipByUser[_userID].push(_id);\r\n        OwnerByProduct[_productID].push(_userID);\r\n        OwnershipsBatch[_batch].push(Ownerships[Ownerships.length - 1]);\r\n    }\r\n\r\n    function batch_mint(uint batch_size, uint _productID, uint _price) public {\r\n        totalBatch = totalBatch + 1;\r\n\r\n        for (uint i = 0; i < batch_size; ++i) {\r\n            mint(_productID, 0, totalBatch, i, _price);\r\n        }\r\n    }\r\n\r\n    function getOwnershipByUser(uint UID) public view returns (uint[] memory) {\r\n        return OwnershipByUser[UID];\r\n    }\r\n\r\n    function getTotalOwnedProduct(uint UID) public view returns (uint) {\r\n        return OwnershipByUser[UID].length;\r\n    }\r\n\r\n    function createUser(uint UID, address uad) public {\r\n        usermap[UID] = uad;\r\n        addressmap[uad] = UID;\r\n    }\r\n\r\n    function getOwnerByProduct(uint PID) public view returns (uint[] memory) {\r\n        return OwnerByProduct[PID];\r\n    }\r\n\r\n    function update(uint _userID, uint id) public payable {\r\n        Ownerships[id].UID = _userID;\r\n        Ownerships[id].state = State.Purchased;\r\n        Ownerships[id].time = now;\r\n        OwnershipByUser[_userID].push(id);\r\n        OwnerByProduct[id].push(_userID);\r\n    }\r\n\r\n    function addUser(uint _userID, address userAddress) public {\r\n        usermap[_userID] = userAddress;\r\n    }\r\n\r\n    function burn(uint _tokenId) public {\r\n        require(_isApprovedOrOwner(msg.sender, _tokenId));\r\n        _burn(ownerOf(_tokenId), _tokenId);\r\n    }\r\n}\r\n",
  "sourcePath": "C:\\Users\\ASUS\\Downloads\\contract\\contracts\\Ownership.sol",
  "compiler": {
    "name": "solc",
    "version": "0.5.16+commit.9c3226ce.Emscripten.clang"
  },
  "schemaVersion": "3.4.16",
  "updatedAt": "2024-03-24T07:46:46.526Z",
  "networkType": "ethereum",
  "devdoc": {
    "methods": {
      "approve(address,uint256)": {
        "details": "Approves another address to transfer the given token ID The zero address indicates there is no approved address. There can only be one approved address per token at a given time. Can only be called by the token owner or an approved operator.",
        "params": {
          "to": "address to be approved for the given token ID",
          "tokenId": "uint256 ID of the token to be approved"
        }
      },
      "balanceOf(address)": {
        "details": "Gets the balance of the specified address.",
        "params": {
          "owner": "address to query the balance of"
        },
        "return": "uint256 representing the amount owned by the passed address"
      },
      "getApproved(uint256)": {
        "details": "Gets the approved address for a token ID, or zero if no address set Reverts if the token ID does not exist.",
        "params": {
          "tokenId": "uint256 ID of the token to query the approval of"
        },
        "return": "address currently approved for the given token ID"
      },
      "isApprovedForAll(address,address)": {
        "details": "Tells whether an operator is approved by a given owner.",
        "params": {
          "operator": "operator address which you want to query the approval of",
          "owner": "owner address which you want to query the approval of"
        },
        "return": "bool whether the given operator is approved by the given owner"
      },
      "name()": {
        "details": "Gets the token name.",
        "return": "string representing the token name"
      },
      "ownerOf(uint256)": {
        "details": "Gets the owner of the specified token ID.",
        "params": {
          "tokenId": "uint256 ID of the token to query the owner of"
        },
        "return": "address currently marked as the owner of the given token ID"
      },
      "safeTransferFrom(address,address,uint256)": {
        "details": "Safely transfers the ownership of a given token ID to another address If the target address is a contract, it must implement `onERC721Received`, which is called upon a safe transfer, and return the magic value `bytes4(keccak256(\"onERC721Received(address,address,uint256,bytes)\"))`; otherwise, the transfer is reverted. Requires the msg.sender to be the owner, approved, or operator",
        "params": {
          "from": "current owner of the token",
          "to": "address to receive the ownership of the given token ID",
          "tokenId": "uint256 ID of the token to be transferred"
        }
      },
      "safeTransferFrom(address,address,uint256,bytes)": {
        "details": "Safely transfers the ownership of a given token ID to another address If the target address is a contract, it must implement `onERC721Received`, which is called upon a safe transfer, and return the magic value `bytes4(keccak256(\"onERC721Received(address,address,uint256,bytes)\"))`; otherwise, the transfer is reverted. Requires the msg.sender to be the owner, approved, or operator",
        "params": {
          "_data": "bytes data to send along with a safe transfer check",
          "from": "current owner of the token",
          "to": "address to receive the ownership of the given token ID",
          "tokenId": "uint256 ID of the token to be transferred"
        }
      },
      "setApprovalForAll(address,bool)": {
        "details": "Sets or unsets the approval of a given operator An operator is allowed to transfer all tokens of the sender on their behalf.",
        "params": {
          "approved": "representing the status of the approval to be set",
          "to": "operator address to set the approval"
        }
      },
      "supportsInterface(bytes4)": {
        "details": "See `IERC165.supportsInterface`.      * Time complexity O(1), guaranteed to always use less than 30 000 gas."
      },
      "symbol()": {
        "details": "Gets the token symbol.",
        "return": "string representing the token symbol"
      },
      "tokenByIndex(uint256)": {
        "details": "Gets the token ID at a given index of all the tokens in this contract Reverts if the index is greater or equal to the total number of tokens.",
        "params": {
          "index": "uint256 representing the index to be accessed of the tokens list"
        },
        "return": "uint256 token ID at the given index of the tokens list"
      },
      "tokenOfOwnerByIndex(address,uint256)": {
        "details": "Gets the token ID at a given index of the tokens list of the requested owner.",
        "params": {
          "index": "uint256 representing the index to be accessed of the requested tokens list",
          "owner": "address owning the tokens list to be accessed"
        },
        "return": "uint256 token ID at the given index of the tokens list owned by the requested address"
      },
      "tokenURI(uint256)": {
        "details": "Returns an URI for a given token ID. Throws if the token ID does not exist. May return an empty string.",
        "params": {
          "tokenId": "uint256 ID of the token to query"
        }
      },
      "totalSupply()": {
        "details": "Gets the total amount of tokens stored by the contract.",
        "return": "uint256 representing the total amount of tokens"
      },
      "transferFrom(address,address,uint256)": {
        "details": "Transfers the ownership of a given token ID to another address. Usage of this method is discouraged, use `safeTransferFrom` whenever possible. Requires the msg.sender to be the owner, approved, or operator.",
        "params": {
          "from": "current owner of the token",
          "to": "address to receive the ownership of the given token ID",
          "tokenId": "uint256 ID of the token to be transferred"
        }
      }
    }
  },
  "userdoc": {
    "methods": {}
  }
}