{
  "contractName": "Transaction",
  "abi": [
    {
      "inputs": [],
      "payable": false,
      "stateMutability": "nonpayable",
      "type": "constructor"
    },
    {
      "anonymous": false,
      "inputs": [
        {
          "indexed": true,
          "internalType": "address",
          "name": "owner",
          "type": "address"
        },
        {
          "indexed": true,
          "internalType": "address",
          "name": "approved",
          "type": "address"
        },
        {
          "indexed": true,
          "internalType": "uint256",
          "name": "tokenId",
          "type": "uint256"
        }
      ],
      "name": "Approval",
      "type": "event"
    },
    {
      "anonymous": false,
      "inputs": [
        {
          "indexed": true,
          "internalType": "address",
          "name": "owner",
          "type": "address"
        },
        {
          "indexed": true,
          "internalType": "address",
          "name": "operator",
          "type": "address"
        },
        {
          "indexed": false,
          "internalType": "bool",
          "name": "approved",
          "type": "bool"
        }
      ],
      "name": "ApprovalForAll",
      "type": "event"
    },
    {
      "anonymous": false,
      "inputs": [
        {
          "indexed": true,
          "internalType": "uint256",
          "name": "tokenId",
          "type": "uint256"
        },
        {
          "indexed": false,
          "internalType": "address",
          "name": "from",
          "type": "address"
        },
        {
          "indexed": false,
          "internalType": "address",
          "name": "to",
          "type": "address"
        },
        {
          "indexed": false,
          "internalType": "uint256",
          "name": "amount",
          "type": "uint256"
        },
        {
          "indexed": false,
          "internalType": "uint256",
          "name": "time",
          "type": "uint256"
        }
      ],
      "name": "SendEtherEvent",
      "type": "event"
    },
    {
      "anonymous": false,
      "inputs": [
        {
          "indexed": true,
          "internalType": "address",
          "name": "from",
          "type": "address"
        },
        {
          "indexed": true,
          "internalType": "address",
          "name": "to",
          "type": "address"
        },
        {
          "indexed": true,
          "internalType": "uint256",
          "name": "tokenId",
          "type": "uint256"
        }
      ],
      "name": "Transfer",
      "type": "event"
    },
    {
      "constant": true,
      "inputs": [
        {
          "internalType": "uint256",
          "name": "",
          "type": "uint256"
        }
      ],
      "name": "Transactions",
      "outputs": [
        {
          "internalType": "uint256",
          "name": "ID",
          "type": "uint256"
        },
        {
          "internalType": "uint256",
          "name": "PID",
          "type": "uint256"
        },
        {
          "internalType": "address",
          "name": "from",
          "type": "address"
        },
        {
          "internalType": "address",
          "name": "to",
          "type": "address"
        },
        {
          "internalType": "uint256",
          "name": "value",
          "type": "uint256"
        },
        {
          "internalType": "uint256",
          "name": "time",
          "type": "uint256"
        }
      ],
      "payable": false,
      "stateMutability": "view",
      "type": "function"
    },
    {
      "constant": true,
      "inputs": [
        {
          "internalType": "address",
          "name": "",
          "type": "address"
        },
        {
          "internalType": "uint256",
          "name": "",
          "type": "uint256"
        }
      ],
      "name": "UserTransactionID",
      "outputs": [
        {
          "internalType": "uint256",
          "name": "",
          "type": "uint256"
        }
      ],
      "payable": false,
      "stateMutability": "view",
      "type": "function"
    },
    {
      "constant": true,
      "inputs": [
        {
          "internalType": "address",
          "name": "",
          "type": "address"
        }
      ],
      "name": "addressmap",
      "outputs": [
        {
          "internalType": "uint256",
          "name": "",
          "type": "uint256"
        }
      ],
      "payable": false,
      "stateMutability": "view",
      "type": "function"
    },
    {
      "constant": false,
      "inputs": [
        {
          "internalType": "address",
          "name": "to",
          "type": "address"
        },
        {
          "internalType": "uint256",
          "name": "tokenId",
          "type": "uint256"
        }
      ],
      "name": "approve",
      "outputs": [],
      "payable": false,
      "stateMutability": "nonpayable",
      "type": "function"
    },
    {
      "constant": true,
      "inputs": [
        {
          "internalType": "address",
          "name": "owner",
          "type": "address"
        }
      ],
      "name": "balanceOf",
      "outputs": [
        {
          "internalType": "uint256",
          "name": "",
          "type": "uint256"
        }
      ],
      "payable": false,
      "stateMutability": "view",
      "type": "function"
    },
    {
      "constant": true,
      "inputs": [
        {
          "internalType": "uint256",
          "name": "tokenId",
          "type": "uint256"
        }
      ],
      "name": "getApproved",
      "outputs": [
        {
          "internalType": "address",
          "name": "",
          "type": "address"
        }
      ],
      "payable": false,
      "stateMutability": "view",
      "type": "function"
    },
    {
      "constant": true,
      "inputs": [
        {
          "internalType": "address",
          "name": "owner",
          "type": "address"
        },
        {
          "internalType": "address",
          "name": "operator",
          "type": "address"
        }
      ],
      "name": "isApprovedForAll",
      "outputs": [
        {
          "internalType": "bool",
          "name": "",
          "type": "bool"
        }
      ],
      "payable": false,
      "stateMutability": "view",
      "type": "function"
    },
    {
      "constant": true,
      "inputs": [],
      "name": "name",
      "outputs": [
        {
          "internalType": "string",
          "name": "",
          "type": "string"
        }
      ],
      "payable": false,
      "stateMutability": "view",
      "type": "function"
    },
    {
      "constant": true,
      "inputs": [
        {
          "internalType": "uint256",
          "name": "tokenId",
          "type": "uint256"
        }
      ],
      "name": "ownerOf",
      "outputs": [
        {
          "internalType": "address",
          "name": "",
          "type": "address"
        }
      ],
      "payable": false,
      "stateMutability": "view",
      "type": "function"
    },
    {
      "constant": false,
      "inputs": [
        {
          "internalType": "address",
          "name": "from",
          "type": "address"
        },
        {
          "internalType": "address",
          "name": "to",
          "type": "address"
        },
        {
          "internalType": "uint256",
          "name": "tokenId",
          "type": "uint256"
        }
      ],
      "name": "safeTransferFrom",
      "outputs": [],
      "payable": false,
      "stateMutability": "nonpayable",
      "type": "function"
    },
    {
      "constant": false,
      "inputs": [
        {
          "internalType": "address",
          "name": "from",
          "type": "address"
        },
        {
          "internalType": "address",
          "name": "to",
          "type": "address"
        },
        {
          "internalType": "uint256",
          "name": "tokenId",
          "type": "uint256"
        },
        {
          "internalType": "bytes",
          "name": "_data",
          "type": "bytes"
        }
      ],
      "name": "safeTransferFrom",
      "outputs": [],
      "payable": false,
      "stateMutability": "nonpayable",
      "type": "function"
    },
    {
      "constant": true,
      "inputs": [
        {
          "internalType": "uint256",
          "name": "",
          "type": "uint256"
        }
      ],
      "name": "sendEther",
      "outputs": [
        {
          "internalType": "uint256",
          "name": "tokenId",
          "type": "uint256"
        },
        {
          "internalType": "address",
          "name": "from",
          "type": "address"
        },
        {
          "internalType": "address",
          "name": "to",
          "type": "address"
        },
        {
          "internalType": "uint256",
          "name": "amount",
          "type": "uint256"
        },
        {
          "internalType": "uint256",
          "name": "time",
          "type": "uint256"
        }
      ],
      "payable": false,
      "stateMutability": "view",
      "type": "function"
    },
    {
      "constant": false,
      "inputs": [
        {
          "internalType": "address",
          "name": "to",
          "type": "address"
        },
        {
          "internalType": "bool",
          "name": "approved",
          "type": "bool"
        }
      ],
      "name": "setApprovalForAll",
      "outputs": [],
      "payable": false,
      "stateMutability": "nonpayable",
      "type": "function"
    },
    {
      "constant": true,
      "inputs": [
        {
          "internalType": "bytes4",
          "name": "interfaceId",
          "type": "bytes4"
        }
      ],
      "name": "supportsInterface",
      "outputs": [
        {
          "internalType": "bool",
          "name": "",
          "type": "bool"
        }
      ],
      "payable": false,
      "stateMutability": "view",
      "type": "function"
    },
    {
      "constant": true,
      "inputs": [],
      "name": "symbol",
      "outputs": [
        {
          "internalType": "string",
          "name": "",
          "type": "string"
        }
      ],
      "payable": false,
      "stateMutability": "view",
      "type": "function"
    },
    {
      "constant": true,
      "inputs": [
        {
          "internalType": "uint256",
          "name": "index",
          "type": "uint256"
        }
      ],
      "name": "tokenByIndex",
      "outputs": [
        {
          "internalType": "uint256",
          "name": "",
          "type": "uint256"
        }
      ],
      "payable": false,
      "stateMutability": "view",
      "type": "function"
    },
    {
      "constant": true,
      "inputs": [
        {
          "internalType": "address",
          "name": "owner",
          "type": "address"
        },
        {
          "internalType": "uint256",
          "name": "index",
          "type": "uint256"
        }
      ],
      "name": "tokenOfOwnerByIndex",
      "outputs": [
        {
          "internalType": "uint256",
          "name": "",
          "type": "uint256"
        }
      ],
      "payable": false,
      "stateMutability": "view",
      "type": "function"
    },
    {
      "constant": true,
      "inputs": [
        {
          "internalType": "uint256",
          "name": "tokenId",
          "type": "uint256"
        }
      ],
      "name": "tokenURI",
      "outputs": [
        {
          "internalType": "string",
          "name": "",
          "type": "string"
        }
      ],
      "payable": false,
      "stateMutability": "view",
      "type": "function"
    },
    {
      "constant": true,
      "inputs": [],
      "name": "totalSupply",
      "outputs": [
        {
          "internalType": "uint256",
          "name": "",
          "type": "uint256"
        }
      ],
      "payable": false,
      "stateMutability": "view",
      "type": "function"
    },
    {
      "constant": false,
      "inputs": [
        {
          "internalType": "address",
          "name": "from",
          "type": "address"
        },
        {
          "internalType": "address",
          "name": "to",
          "type": "address"
        },
        {
          "internalType": "uint256",
          "name": "tokenId",
          "type": "uint256"
        }
      ],
      "name": "transferFrom",
      "outputs": [],
      "payable": false,
      "stateMutability": "nonpayable",
      "type": "function"
    },
    {
      "constant": false,
      "inputs": [
        {
          "internalType": "uint256",
          "name": "_productID",
          "type": "uint256"
        },
        {
          "internalType": "address",
          "name": "_from",
          "type": "address"
        },
        {
          "internalType": "address",
          "name": "_to",
          "type": "address"
        },
        {
          "internalType": "uint256",
          "name": "_value",
          "type": "uint256"
        }
      ],
      "name": "mint",
      "outputs": [],
      "payable": false,
      "stateMutability": "nonpayable",
      "type": "function"
    },
    {
      "constant": true,
      "inputs": [
        {
          "internalType": "address",
          "name": "uad",
          "type": "address"
        }
      ],
      "name": "getTx",
      "outputs": [
        {
          "internalType": "uint256[]",
          "name": "",
          "type": "uint256[]"
        }
      ],
      "payable": false,
      "stateMutability": "view",
      "type": "function"
    },
    {
      "constant": true,
      "inputs": [],
      "name": "getAllTransactions",
      "outputs": [
        {
          "components": [
            {
              "internalType": "uint256",
              "name": "ID",
              "type": "uint256"
            },
            {
              "internalType": "uint256",
              "name": "PID",
              "type": "uint256"
            },
            {
              "internalType": "address",
              "name": "from",
              "type": "address"
            },
            {
              "internalType": "address",
              "name": "to",
              "type": "address"
            },
            {
              "internalType": "uint256",
              "name": "value",
              "type": "uint256"
            },
            {
              "internalType": "uint256",
              "name": "time",
              "type": "uint256"
            }
          ],
          "internalType": "struct Transaction.Trans[]",
          "name": "",
          "type": "tuple[]"
        }
      ],
      "payable": false,
      "stateMutability": "view",
      "type": "function"
    },
    {
      "constant": true,
      "inputs": [
        {
          "internalType": "address",
          "name": "uad",
          "type": "address"
        }
      ],
      "name": "getTotalTx",
      "outputs": [
        {
          "internalType": "uint256",
          "name": "",
          "type": "uint256"
        }
      ],
      "payable": false,
      "stateMutability": "view",
      "type": "function"
    },
    {
      "constant": true,
      "inputs": [],
      "name": "getBalance",
      "outputs": [
        {
          "internalType": "uint256",
          "name": "",
          "type": "uint256"
        }
      ],
      "payable": false,
      "stateMutability": "view",
      "type": "function"
    },
    {
      "constant": false,
      "inputs": [
        {
          "internalType": "address",
          "name": "_from",
          "type": "address"
        },
        {
          "internalType": "address payable",
          "name": "_to",
          "type": "address"
        },
        {
          "internalType": "uint256",
          "name": "_tokenId",
          "type": "uint256"
        },
        {
          "internalType": "uint256",
          "name": "_amount",
          "type": "uint256"
        }
      ],
      "name": "sendEtherSafely",
      "outputs": [],
      "payable": false,
      "stateMutability": "nonpayable",
      "type": "function"
    },
    {
      "constant": true,
      "inputs": [
        {
          "internalType": "address",
          "name": "sender",
          "type": "address"
        }
      ],
      "name": "getSentTransactions",
      "outputs": [
        {
          "components": [
            {
              "internalType": "uint256",
              "name": "tokenId",
              "type": "uint256"
            },
            {
              "internalType": "address",
              "name": "from",
              "type": "address"
            },
            {
              "internalType": "address",
              "name": "to",
              "type": "address"
            },
            {
              "internalType": "uint256",
              "name": "amount",
              "type": "uint256"
            },
            {
              "internalType": "uint256",
              "name": "time",
              "type": "uint256"
            }
          ],
          "internalType": "struct Transaction.SendEther[]",
          "name": "",
          "type": "tuple[]"
        }
      ],
      "payable": false,
      "stateMutability": "view",
      "type": "function"
    },
    {
      "constant": false,
      "inputs": [
        {
          "internalType": "uint256",
          "name": "_tokenId",
          "type": "uint256"
        }
      ],
      "name": "burn",
      "outputs": [],
      "payable": false,
      "stateMutability": "nonpayable",
      "type": "function"
    }
  ],
  "bytecode": "0x60806040523480156200001157600080fd5b506040518060400160405280600b81526020017f5472616e73616374696f6e0000000000000000000000000000000000000000008152506040518060400160405280600b81526020017f5452414e53414354494f4e0000000000000000000000000000000000000000008152508181620000986301ffc9a760e01b6200011c60201b60201c565b620000b06380ac58cd60e01b6200011c60201b60201c565b620000c863780e9d6360e01b6200011c60201b60201c565b8160099080519060200190620000e0929190620001f4565b5080600a9080519060200190620000f9929190620001f4565b5062000112635b5e139f60e01b6200011c60201b60201c565b5050505062000318565b63ffffffff60e01b817bffffffffffffffffffffffffffffffffffffffffffffffffffffffff1916141562000188576040517f08c379a00000000000000000000000000000000000000000000000000000000081526004016200017f90620002e5565b60405180910390fd5b6001600080837bffffffffffffffffffffffffffffffffffffffffffffffffffffffff19167bffffffffffffffffffffffffffffffffffffffffffffffffffffffff1916815260200190815260200160002060006101000a81548160ff02191690831515021790555050565b828054600181600116156101000203166002900490600052602060002090601f016020900481019282601f106200023757805160ff191683800117855562000268565b8280016001018555821562000268579182015b82811115620002675782518255916020019190600101906200024a565b5b5090506200027791906200027b565b5090565b620002a091905b808211156200029c57600081600090555060010162000282565b5090565b90565b6000620002b2601c8362000307565b91507f4552433136353a20696e76616c696420696e74657266616365206964000000006000830152602082019050919050565b600060208201905081810360008301526200030081620002a3565b9050919050565b600082825260208201905092915050565b613e8180620003286000396000f3fe608060405234801561001057600080fd5b50600436106101c45760003560e01c80635409b4d7116100f9578063b88d4fde11610097578063e985e9c511610071578063e985e9c514610568578063f88d331a14610598578063fa979eee146105cc578063fc70c477146105e8576101c4565b8063b88d4fde146104ec578063c87b56dd14610508578063d556da0a14610538576101c4565b80637d7186d5116100d35780637d7186d51461045257806395d89b411461048257806397c789e3146104a0578063a22cb465146104d0576101c4565b80635409b4d7146103c25780636352211e146103f257806370a0823114610422576101c4565b806323b872dd1161016657806334008b161161014057806334008b161461032557806342842e0e1461035a57806342966c68146103765780634f6ccce714610392576101c4565b806323b872dd146102bb57806327506f53146102d75780632f745c59146102f5576101c4565b8063081812fc116101a2578063081812fc14610233578063095ea7b31461026357806312065fe01461027f57806318160ddd1461029d576101c4565b806301ffc9a7146101c957806306fdde03146101f9578063074ee44614610217575b600080fd5b6101e360048036036101de9190810190612bdf565b610618565b6040516101f091906137f4565b60405180910390f35b61020161067f565b60405161020e919061380f565b60405180910390f35b610231600480360361022c9190810190612c5a565b610721565b005b61024d60048036036102489190810190612c31565b6108e4565b60405161025a91906136e2565b60405180910390f35b61027d60048036036102789190810190612ba3565b610969565b005b610287610b16565b6040516102949190613ab1565b60405180910390f35b6102a5610b1e565b6040516102b29190613ab1565b60405180910390f35b6102d560048036036102d09190810190612a9d565b610b2b565b005b6102df610b84565b6040516102ec91906137b0565b60405180910390f35b61030f600480360361030a9190810190612ba3565b610cb7565b60405161031c9190613ab1565b60405180910390f35b61033f600480360361033a9190810190612c31565b610d60565b60405161035196959493929190613b1f565b60405180910390f35b610374600480360361036f9190810190612a9d565b610de9565b005b610390600480360361038b9190810190612c31565b610e09565b005b6103ac60048036036103a79190810190612c31565b610e31565b6040516103b99190613ab1565b60405180910390f35b6103dc60048036036103d79190810190612ba3565b610e9b565b6040516103e99190613ab1565b60405180910390f35b61040c60048036036104079190810190612c31565b610ec9565b60405161041991906136e2565b60405180910390f35b61043c600480360361043791908101906129d5565b610f7b565b6040516104499190613ab1565b60405180910390f35b61046c600480360361046791908101906129d5565b61103a565b6040516104799190613ab1565b60405180910390f35b61048a611052565b604051610497919061380f565b60405180910390f35b6104ba60048036036104b591908101906129d5565b6110f4565b6040516104c79190613ab1565b60405180910390f35b6104ea60048036036104e59190810190612b67565b611140565b005b61050660048036036105019190810190612aec565b6112ac565b005b610522600480360361051d9190810190612c31565b611308565b60405161052f919061380f565b60405180910390f35b610552600480360361054d91908101906129d5565b611405565b60405161055f91906137d2565b60405180910390f35b610582600480360361057d91908101906129fe565b61149c565b60405161058f91906137f4565b60405180910390f35b6105b260048036036105ad9190810190612c31565b611530565b6040516105c3959493929190613acc565b60405180910390f35b6105e660048036036105e19190810190612a3a565b6115b3565b005b61060260048036036105fd91908101906129d5565b611804565b60405161060f919061378e565b60405180910390f35b6000806000837bffffffffffffffffffffffffffffffffffffffffffffffffffffffff19167bffffffffffffffffffffffffffffffffffffffffffffffffffffffff1916815260200190815260200160002060009054906101000a900460ff169050919050565b606060098054600181600116156101000203166002900480601f0160208091040260200160405190810160405280929190818152602001828054600181600116156101000203166002900480156107175780601f106106ec57610100808354040283529160200191610717565b820191906000526020600020905b8154815290600101906020018083116106fa57829003601f168201915b5050505050905090565b6000600e805490509050600e6040518060c001604052808381526020018781526020018673ffffffffffffffffffffffffffffffffffffffff1681526020018573ffffffffffffffffffffffffffffffffffffffff1681526020018481526020014281525090806001815401808255809150509060018203906000526020600020906006020160009091929091909150600082015181600001556020820151816001015560408201518160020160006101000a81548173ffffffffffffffffffffffffffffffffffffffff021916908373ffffffffffffffffffffffffffffffffffffffff16021790555060608201518160030160006101000a81548173ffffffffffffffffffffffffffffffffffffffff021916908373ffffffffffffffffffffffffffffffffffffffff1602179055506080820151816004015560a082015181600501555050506108743382611a99565b600c60008473ffffffffffffffffffffffffffffffffffffffff1673ffffffffffffffffffffffffffffffffffffffff1681526020019081526020016000208190806001815401808255809150509060018203906000526020600020016000909192909190915055505050505050565b60006108ef82611aba565b61092e576040517f08c379a0000000000000000000000000000000000000000000000000000000008152600401610925906139b1565b60405180910390fd5b6002600083815260200190815260200160002060009054906101000a900473ffffffffffffffffffffffffffffffffffffffff169050919050565b600061097482610ec9565b90508073ffffffffffffffffffffffffffffffffffffffff168373ffffffffffffffffffffffffffffffffffffffff1614156109e5576040517f08c379a00000000000000000000000000000000000000000000000000000000081526004016109dc90613a11565b60405180910390fd5b8073ffffffffffffffffffffffffffffffffffffffff163373ffffffffffffffffffffffffffffffffffffffff161480610a255750610a24813361149c565b5b610a64576040517f08c379a0000000000000000000000000000000000000000000000000000000008152600401610a5b90613931565b60405180910390fd5b826002600084815260200190815260200160002060006101000a81548173ffffffffffffffffffffffffffffffffffffffff021916908373ffffffffffffffffffffffffffffffffffffffff160217905550818373ffffffffffffffffffffffffffffffffffffffff168273ffffffffffffffffffffffffffffffffffffffff167f8c5be1e5ebec7d5bd14f71427d1e84f3dd0314c0f7b2291e5b200ac8c7c3b92560405160405180910390a4505050565b600047905090565b6000600780549050905090565b610b353382611b2c565b610b74576040517f08c379a0000000000000000000000000000000000000000000000000000000008152600401610b6b90613a31565b60405180910390fd5b610b7f838383611c0a565b505050565b6060600e805480602002602001604051908101604052809291908181526020016000905b82821015610cae57838290600052602060002090600602016040518060c001604052908160008201548152602001600182015481526020016002820160009054906101000a900473ffffffffffffffffffffffffffffffffffffffff1673ffffffffffffffffffffffffffffffffffffffff1673ffffffffffffffffffffffffffffffffffffffff1681526020016003820160009054906101000a900473ffffffffffffffffffffffffffffffffffffffff1673ffffffffffffffffffffffffffffffffffffffff1673ffffffffffffffffffffffffffffffffffffffff1681526020016004820154815260200160058201548152505081526020019060010190610ba8565b50505050905090565b6000610cc283610f7b565b8210610d03576040517f08c379a0000000000000000000000000000000000000000000000000000000008152600401610cfa90613831565b60405180910390fd5b600560008473ffffffffffffffffffffffffffffffffffffffff1673ffffffffffffffffffffffffffffffffffffffff1681526020019081526020016000208281548110610d4d57fe5b9060005260206000200154905092915050565b600e8181548110610d6d57fe5b90600052602060002090600602016000915090508060000154908060010154908060020160009054906101000a900473ffffffffffffffffffffffffffffffffffffffff16908060030160009054906101000a900473ffffffffffffffffffffffffffffffffffffffff16908060040154908060050154905086565b610e04838383604051806020016040528060008152506112ac565b505050565b610e133382611b2c565b610e1c57600080fd5b610e2e610e2882610ec9565b82611c2e565b50565b6000610e3b610b1e565b8210610e7c576040517f08c379a0000000000000000000000000000000000000000000000000000000008152600401610e7390613a51565b60405180910390fd5b60078281548110610e8957fe5b90600052602060002001549050919050565b600c6020528160005260406000208181548110610eb457fe5b90600052602060002001600091509150505481565b6000806001600084815260200190815260200160002060009054906101000a900473ffffffffffffffffffffffffffffffffffffffff169050600073ffffffffffffffffffffffffffffffffffffffff168173ffffffffffffffffffffffffffffffffffffffff161415610f72576040517f08c379a0000000000000000000000000000000000000000000000000000000008152600401610f6990613971565b60405180910390fd5b80915050919050565b60008073ffffffffffffffffffffffffffffffffffffffff168273ffffffffffffffffffffffffffffffffffffffff161415610fec576040517f08c379a0000000000000000000000000000000000000000000000000000000008152600401610fe390613951565b60405180910390fd5b611033600360008473ffffffffffffffffffffffffffffffffffffffff1673ffffffffffffffffffffffffffffffffffffffff168152602001908152602001600020611c8b565b9050919050565b600d6020528060005260406000206000915090505481565b6060600a8054600181600116156101000203166002900480601f0160208091040260200160405190810160405280929190818152602001828054600181600116156101000203166002900480156110ea5780601f106110bf576101008083540402835291602001916110ea565b820191906000526020600020905b8154815290600101906020018083116110cd57829003601f168201915b5050505050905090565b6000600c60008373ffffffffffffffffffffffffffffffffffffffff1673ffffffffffffffffffffffffffffffffffffffff168152602001908152602001600020805490509050919050565b3373ffffffffffffffffffffffffffffffffffffffff168273ffffffffffffffffffffffffffffffffffffffff1614156111af576040517f08c379a00000000000000000000000000000000000000000000000000000000081526004016111a6906138b1565b60405180910390fd5b80600460003373ffffffffffffffffffffffffffffffffffffffff1673ffffffffffffffffffffffffffffffffffffffff16815260200190815260200160002060008473ffffffffffffffffffffffffffffffffffffffff1673ffffffffffffffffffffffffffffffffffffffff16815260200190815260200160002060006101000a81548160ff0219169083151502179055508173ffffffffffffffffffffffffffffffffffffffff163373ffffffffffffffffffffffffffffffffffffffff167f17307eab39ab6107e8899845ad3d59bd9653f200f220920489ca2b5937696c31836040516112a091906137f4565b60405180910390a35050565b6112b7848484610b2b565b6112c384848484611c99565b611302576040517f08c379a00000000000000000000000000000000000000000000000000000000081526004016112f990613851565b60405180910390fd5b50505050565b606061131382611aba565b611352576040517f08c379a0000000000000000000000000000000000000000000000000000000008152600401611349906139f1565b60405180910390fd5b600b60008381526020019081526020016000208054600181600116156101000203166002900480601f0160208091040260200160405190810160405280929190818152602001828054600181600116156101000203166002900480156113f95780601f106113ce576101008083540402835291602001916113f9565b820191906000526020600020905b8154815290600101906020018083116113dc57829003601f168201915b50505050509050919050565b6060600c60008373ffffffffffffffffffffffffffffffffffffffff1673ffffffffffffffffffffffffffffffffffffffff16815260200190815260200160002080548060200260200160405190810160405280929190818152602001828054801561149057602002820191906000526020600020905b81548152602001906001019080831161147c575b50505050509050919050565b6000600460008473ffffffffffffffffffffffffffffffffffffffff1673ffffffffffffffffffffffffffffffffffffffff16815260200190815260200160002060008373ffffffffffffffffffffffffffffffffffffffff1673ffffffffffffffffffffffffffffffffffffffff16815260200190815260200160002060009054906101000a900460ff16905092915050565b600f818154811061153d57fe5b90600052602060002090600502016000915090508060000154908060010160009054906101000a900473ffffffffffffffffffffffffffffffffffffffff16908060020160009054906101000a900473ffffffffffffffffffffffffffffffffffffffff16908060030154908060040154905085565b600f6040518060a001604052808481526020018673ffffffffffffffffffffffffffffffffffffffff1681526020018573ffffffffffffffffffffffffffffffffffffffff16815260200183815260200142815250908060018154018082558091505090600182039060005260206000209060050201600090919290919091506000820151816000015560208201518160010160006101000a81548173ffffffffffffffffffffffffffffffffffffffff021916908373ffffffffffffffffffffffffffffffffffffffff16021790555060408201518160020160006101000a81548173ffffffffffffffffffffffffffffffffffffffff021916908373ffffffffffffffffffffffffffffffffffffffff1602179055506060820151816003015560808201518160040155505050817fab38cc01766f07d6543a1b4bc84c9d187c20799d098a04362062df4ab62667a53385844260405161171894939291906136fd565b60405180910390a261172a3383611b2c565b611769576040517f08c379a000000000000000000000000000000000000000000000000000000000815260040161176090613911565b60405180910390fd5b804710156117ac576040517f08c379a00000000000000000000000000000000000000000000000000000000081526004016117a390613a91565b60405180910390fd5b6117b7338484610de9565b8273ffffffffffffffffffffffffffffffffffffffff166108fc829081150290604051600060405180830381858888f193505050501580156117fd573d6000803e3d6000fd5b5050505050565b6060600080905060008090505b600f805490508110156118a6578373ffffffffffffffffffffffffffffffffffffffff16600f828154811061184257fe5b906000526020600020906005020160010160009054906101000a900473ffffffffffffffffffffffffffffffffffffffff1673ffffffffffffffffffffffffffffffffffffffff1614156118995781806001019250505b8080600101915050611811565b506060816040519080825280602002602001820160405280156118e357816020015b6118d061280f565b8152602001906001900390816118c85790505b509050600080905060008090505b600f80549050811015611a8d578573ffffffffffffffffffffffffffffffffffffffff16600f828154811061192257fe5b906000526020600020906005020160010160009054906101000a900473ffffffffffffffffffffffffffffffffffffffff1673ffffffffffffffffffffffffffffffffffffffff161415611a8057600f818154811061197d57fe5b90600052602060002090600502016040518060a0016040529081600082015481526020016001820160009054906101000a900473ffffffffffffffffffffffffffffffffffffffff1673ffffffffffffffffffffffffffffffffffffffff1673ffffffffffffffffffffffffffffffffffffffff1681526020016002820160009054906101000a900473ffffffffffffffffffffffffffffffffffffffff1673ffffffffffffffffffffffffffffffffffffffff1673ffffffffffffffffffffffffffffffffffffffff16815260200160038201548152602001600482015481525050838381518110611a6c57fe5b602002602001018190525081806001019250505b80806001019150506118f1565b50819350505050919050565b611aa38282611db0565b611aad8282611f62565b611ab681612029565b5050565b6000806001600084815260200190815260200160002060009054906101000a900473ffffffffffffffffffffffffffffffffffffffff169050600073ffffffffffffffffffffffffffffffffffffffff168173ffffffffffffffffffffffffffffffffffffffff161415915050919050565b6000611b3782611aba565b611b76576040517f08c379a0000000000000000000000000000000000000000000000000000000008152600401611b6d906138f1565b60405180910390fd5b6000611b8183610ec9565b90508073ffffffffffffffffffffffffffffffffffffffff168473ffffffffffffffffffffffffffffffffffffffff161480611bf057508373ffffffffffffffffffffffffffffffffffffffff16611bd8846108e4565b73ffffffffffffffffffffffffffffffffffffffff16145b80611c015750611c00818561149c565b5b91505092915050565b611c15838383612075565b611c1f83826122a4565b611c298282611f62565b505050565b611c388282612442565b6000600b600083815260200190815260200160002080546001816001161561010002031660029004905014611c8757600b60008281526020019081526020016000206000611c86919061286a565b5b5050565b600081600001549050919050565b6000611cba8473ffffffffffffffffffffffffffffffffffffffff1661247c565b611cc75760019050611da8565b60008473ffffffffffffffffffffffffffffffffffffffff1663150b7a02338887876040518563ffffffff1660e01b8152600401611d089493929190613742565b602060405180830381600087803b158015611d2257600080fd5b505af1158015611d36573d6000803e3d6000fd5b505050506040513d601f19601f82011682018060405250611d5a9190810190612c08565b905063150b7a0260e01b7bffffffffffffffffffffffffffffffffffffffffffffffffffffffff1916817bffffffffffffffffffffffffffffffffffffffffffffffffffffffff1916149150505b949350505050565b600073ffffffffffffffffffffffffffffffffffffffff168273ffffffffffffffffffffffffffffffffffffffff161415611e20576040517f08c379a0000000000000000000000000000000000000000000000000000000008152600401611e1790613991565b60405180910390fd5b611e2981611aba565b15611e69576040517f08c379a0000000000000000000000000000000000000000000000000000000008152600401611e6090613871565b60405180910390fd5b816001600083815260200190815260200160002060006101000a81548173ffffffffffffffffffffffffffffffffffffffff021916908373ffffffffffffffffffffffffffffffffffffffff160217905550611f02600360008473ffffffffffffffffffffffffffffffffffffffff1673ffffffffffffffffffffffffffffffffffffffff16815260200190815260200160002061248f565b808273ffffffffffffffffffffffffffffffffffffffff16600073ffffffffffffffffffffffffffffffffffffffff167fddf252ad1be2c89b69c2b068fc378daa952ba7f163c4a11628f55a4df523b3ef60405160405180910390a45050565b600560008373ffffffffffffffffffffffffffffffffffffffff1673ffffffffffffffffffffffffffffffffffffffff168152602001908152602001600020805490506006600083815260200190815260200160002081905550600560008373ffffffffffffffffffffffffffffffffffffffff1673ffffffffffffffffffffffffffffffffffffffff1681526020019081526020016000208190806001815401808255809150509060018203906000526020600020016000909192909190915055505050565b6007805490506008600083815260200190815260200160002081905550600781908060018154018082558091505090600182039060005260206000200160009091929091909150555050565b8273ffffffffffffffffffffffffffffffffffffffff1661209582610ec9565b73ffffffffffffffffffffffffffffffffffffffff16146120eb576040517f08c379a00000000000000000000000000000000000000000000000000000000081526004016120e2906139d1565b60405180910390fd5b600073ffffffffffffffffffffffffffffffffffffffff168273ffffffffffffffffffffffffffffffffffffffff16141561215b576040517f08c379a000000000000000000000000000000000000000000000000000000000815260040161215290613891565b60405180910390fd5b612164816124a5565b6121ab600360008573ffffffffffffffffffffffffffffffffffffffff1673ffffffffffffffffffffffffffffffffffffffff168152602001908152602001600020612563565b6121f2600360008473ffffffffffffffffffffffffffffffffffffffff1673ffffffffffffffffffffffffffffffffffffffff16815260200190815260200160002061248f565b816001600083815260200190815260200160002060006101000a81548173ffffffffffffffffffffffffffffffffffffffff021916908373ffffffffffffffffffffffffffffffffffffffff160217905550808273ffffffffffffffffffffffffffffffffffffffff168473ffffffffffffffffffffffffffffffffffffffff167fddf252ad1be2c89b69c2b068fc378daa952ba7f163c4a11628f55a4df523b3ef60405160405180910390a4505050565b60006122fc6001600560008673ffffffffffffffffffffffffffffffffffffffff1673ffffffffffffffffffffffffffffffffffffffff1681526020019081526020016000208054905061258690919063ffffffff16565b90506000600660008481526020019081526020016000205490508181146123e9576000600560008673ffffffffffffffffffffffffffffffffffffffff1673ffffffffffffffffffffffffffffffffffffffff168152602001908152602001600020838154811061236957fe5b9060005260206000200154905080600560008773ffffffffffffffffffffffffffffffffffffffff1673ffffffffffffffffffffffffffffffffffffffff16815260200190815260200160002083815481106123c157fe5b9060005260206000200181905550816006600083815260200190815260200160002081905550505b600560008573ffffffffffffffffffffffffffffffffffffffff1673ffffffffffffffffffffffffffffffffffffffff16815260200190815260200160002080548091906001900361243b91906128b2565b5050505050565b61244c82826125dc565b61245682826122a4565b6000600660008381526020019081526020016000208190555061247881612755565b5050565b600080823b905060008111915050919050565b6001816000016000828254019250508190555050565b600073ffffffffffffffffffffffffffffffffffffffff166002600083815260200190815260200160002060009054906101000a900473ffffffffffffffffffffffffffffffffffffffff1673ffffffffffffffffffffffffffffffffffffffff16146125605760006002600083815260200190815260200160002060006101000a81548173ffffffffffffffffffffffffffffffffffffffff021916908373ffffffffffffffffffffffffffffffffffffffff1602179055505b50565b61257b6001826000015461258690919063ffffffff16565b816000018190555050565b6000828211156125cb576040517f08c379a00000000000000000000000000000000000000000000000000000000081526004016125c2906138d1565b60405180910390fd5b600082840390508091505092915050565b8173ffffffffffffffffffffffffffffffffffffffff166125fc82610ec9565b73ffffffffffffffffffffffffffffffffffffffff1614612652576040517f08c379a000000000000000000000000000000000000000000000000000000000815260040161264990613a71565b60405180910390fd5b61265b816124a5565b6126a2600360008473ffffffffffffffffffffffffffffffffffffffff1673ffffffffffffffffffffffffffffffffffffffff168152602001908152602001600020612563565b60006001600083815260200190815260200160002060006101000a81548173ffffffffffffffffffffffffffffffffffffffff021916908373ffffffffffffffffffffffffffffffffffffffff16021790555080600073ffffffffffffffffffffffffffffffffffffffff168373ffffffffffffffffffffffffffffffffffffffff167fddf252ad1be2c89b69c2b068fc378daa952ba7f163c4a11628f55a4df523b3ef60405160405180910390a45050565b6000612770600160078054905061258690919063ffffffff16565b905060006008600084815260200190815260200160002054905060006007838154811061279957fe5b9060005260206000200154905080600783815481106127b457fe5b906000526020600020018190555081600860008381526020019081526020016000208190555060078054809190600190036127ef91906128b2565b506000600860008681526020019081526020016000208190555050505050565b6040518060a0016040528060008152602001600073ffffffffffffffffffffffffffffffffffffffff168152602001600073ffffffffffffffffffffffffffffffffffffffff16815260200160008152602001600081525090565b50805460018160011615610100020316600290046000825580601f1061289057506128af565b601f0160209004906000526020600020908101906128ae91906128de565b5b50565b8154818355818111156128d9578183600052602060002091820191016128d891906128de565b5b505050565b61290091905b808211156128fc5760008160009055506001016128e4565b5090565b90565b60008135905061291281613dcb565b92915050565b60008135905061292781613de2565b92915050565b60008135905061293c81613df9565b92915050565b60008135905061295181613e10565b92915050565b60008151905061296681613e10565b92915050565b600082601f83011261297d57600080fd5b813561299061298b82613bad565b613b80565b915080825260208301602083018583830111156129ac57600080fd5b6129b7838284613d78565b50505092915050565b6000813590506129cf81613e27565b92915050565b6000602082840312156129e757600080fd5b60006129f584828501612903565b91505092915050565b60008060408385031215612a1157600080fd5b6000612a1f85828601612903565b9250506020612a3085828601612903565b9150509250929050565b60008060008060808587031215612a5057600080fd5b6000612a5e87828801612903565b9450506020612a6f87828801612918565b9350506040612a80878288016129c0565b9250506060612a91878288016129c0565b91505092959194509250565b600080600060608486031215612ab257600080fd5b6000612ac086828701612903565b9350506020612ad186828701612903565b9250506040612ae2868287016129c0565b9150509250925092565b60008060008060808587031215612b0257600080fd5b6000612b1087828801612903565b9450506020612b2187828801612903565b9350506040612b32878288016129c0565b925050606085013567ffffffffffffffff811115612b4f57600080fd5b612b5b8782880161296c565b91505092959194509250565b60008060408385031215612b7a57600080fd5b6000612b8885828601612903565b9250506020612b998582860161292d565b9150509250929050565b60008060408385031215612bb657600080fd5b6000612bc485828601612903565b9250506020612bd5858286016129c0565b9150509250929050565b600060208284031215612bf157600080fd5b6000612bff84828501612942565b91505092915050565b600060208284031215612c1a57600080fd5b6000612c2884828501612957565b91505092915050565b600060208284031215612c4357600080fd5b6000612c51848285016129c0565b91505092915050565b60008060008060808587031215612c7057600080fd5b6000612c7e878288016129c0565b9450506020612c8f87828801612903565b9350506040612ca087828801612903565b9250506060612cb1878288016129c0565b91505092959194509250565b6000612cc983836135e1565b60a08301905092915050565b6000612ce18383613649565b60c08301905092915050565b6000612cf983836136c4565b60208301905092915050565b612d0e81613d42565b82525050565b612d1d81613cbc565b82525050565b612d2c81613cbc565b82525050565b6000612d3d82613c09565b612d478185613c67565b9350612d5283613bd9565b8060005b83811015612d83578151612d6a8882612cbd565b9750612d7583613c40565b925050600181019050612d56565b5085935050505092915050565b6000612d9b82613c14565b612da58185613c78565b9350612db083613be9565b8060005b83811015612de1578151612dc88882612cd5565b9750612dd383613c4d565b925050600181019050612db4565b5085935050505092915050565b6000612df982613c1f565b612e038185613c89565b9350612e0e83613bf9565b8060005b83811015612e3f578151612e268882612ced565b9750612e3183613c5a565b925050600181019050612e12565b5085935050505092915050565b612e5581613ce0565b82525050565b6000612e6682613c2a565b612e708185613c9a565b9350612e80818560208601613d87565b612e8981613dba565b840191505092915050565b6000612e9f82613c35565b612ea98185613cab565b9350612eb9818560208601613d87565b612ec281613dba565b840191505092915050565b6000612eda602b83613cab565b91507f455243373231456e756d657261626c653a206f776e657220696e646578206f7560008301527f74206f6620626f756e64730000000000000000000000000000000000000000006020830152604082019050919050565b6000612f40603283613cab565b91507f4552433732313a207472616e7366657220746f206e6f6e20455243373231526560008301527f63656976657220696d706c656d656e74657200000000000000000000000000006020830152604082019050919050565b6000612fa6601c83613cab565b91507f4552433732313a20746f6b656e20616c7265616479206d696e746564000000006000830152602082019050919050565b6000612fe6602483613cab565b91507f4552433732313a207472616e7366657220746f20746865207a65726f2061646460008301527f72657373000000000000000000000000000000000000000000000000000000006020830152604082019050919050565b600061304c601983613cab565b91507f4552433732313a20617070726f766520746f2063616c6c6572000000000000006000830152602082019050919050565b600061308c601e83613cab565b91507f536166654d6174683a207375627472616374696f6e206f766572666c6f7700006000830152602082019050919050565b60006130cc602c83613cab565b91507f4552433732313a206f70657261746f7220717565727920666f72206e6f6e657860008301527f697374656e7420746f6b656e00000000000000000000000000000000000000006020830152604082019050919050565b6000613132601e83613cab565b91507f4e6f7420617070726f76656420746f207472616e7366657220746f6b656e00006000830152602082019050919050565b6000613172603883613cab565b91507f4552433732313a20617070726f76652063616c6c6572206973206e6f74206f7760008301527f6e6572206e6f7220617070726f76656420666f7220616c6c00000000000000006020830152604082019050919050565b60006131d8602a83613cab565b91507f4552433732313a2062616c616e636520717565727920666f7220746865207a6560008301527f726f2061646472657373000000000000000000000000000000000000000000006020830152604082019050919050565b600061323e602983613cab565b91507f4552433732313a206f776e657220717565727920666f72206e6f6e657869737460008301527f656e7420746f6b656e00000000000000000000000000000000000000000000006020830152604082019050919050565b60006132a4602083613cab565b91507f4552433732313a206d696e7420746f20746865207a65726f20616464726573736000830152602082019050919050565b60006132e4602c83613cab565b91507f4552433732313a20617070726f76656420717565727920666f72206e6f6e657860008301527f697374656e7420746f6b656e00000000000000000000000000000000000000006020830152604082019050919050565b600061334a602983613cab565b91507f4552433732313a207472616e73666572206f6620746f6b656e2074686174206960008301527f73206e6f74206f776e00000000000000000000000000000000000000000000006020830152604082019050919050565b60006133b0602f83613cab565b91507f4552433732314d657461646174613a2055524920717565727920666f72206e6f60008301527f6e6578697374656e7420746f6b656e00000000000000000000000000000000006020830152604082019050919050565b6000613416602183613cab565b91507f4552433732313a20617070726f76616c20746f2063757272656e74206f776e6560008301527f72000000000000000000000000000000000000000000000000000000000000006020830152604082019050919050565b600061347c603183613cab565b91507f4552433732313a207472616e736665722063616c6c6572206973206e6f74206f60008301527f776e6572206e6f7220617070726f7665640000000000000000000000000000006020830152604082019050919050565b60006134e2602c83613cab565b91507f455243373231456e756d657261626c653a20676c6f62616c20696e646578206f60008301527f7574206f6620626f756e647300000000000000000000000000000000000000006020830152604082019050919050565b6000613548602583613cab565b91507f4552433732313a206275726e206f6620746f6b656e2074686174206973206e6f60008301527f74206f776e0000000000000000000000000000000000000000000000000000006020830152604082019050919050565b60006135ae601d83613cab565b91507f496e73756666696369656e7420636f6e74726163742062616c616e63650000006000830152602082019050919050565b60a0820160008201516135f760008501826136c4565b50602082015161360a6020850182612d14565b50604082015161361d6040850182612d14565b50606082015161363060608501826136c4565b50608082015161364360808501826136c4565b50505050565b60c08201600082015161365f60008501826136c4565b50602082015161367260208501826136c4565b5060408201516136856040850182612d14565b5060608201516136986060850182612d14565b5060808201516136ab60808501826136c4565b5060a08201516136be60a08501826136c4565b50505050565b6136cd81613d38565b82525050565b6136dc81613d38565b82525050565b60006020820190506136f76000830184612d23565b92915050565b60006080820190506137126000830187612d05565b61371f6020830186612d05565b61372c60408301856136d3565b61373960608301846136d3565b95945050505050565b60006080820190506137576000830187612d05565b6137646020830186612d23565b61377160408301856136d3565b81810360608301526137838184612e5b565b905095945050505050565b600060208201905081810360008301526137a88184612d32565b905092915050565b600060208201905081810360008301526137ca8184612d90565b905092915050565b600060208201905081810360008301526137ec8184612dee565b905092915050565b60006020820190506138096000830184612e4c565b92915050565b600060208201905081810360008301526138298184612e94565b905092915050565b6000602082019050818103600083015261384a81612ecd565b9050919050565b6000602082019050818103600083015261386a81612f33565b9050919050565b6000602082019050818103600083015261388a81612f99565b9050919050565b600060208201905081810360008301526138aa81612fd9565b9050919050565b600060208201905081810360008301526138ca8161303f565b9050919050565b600060208201905081810360008301526138ea8161307f565b9050919050565b6000602082019050818103600083015261390a816130bf565b9050919050565b6000602082019050818103600083015261392a81613125565b9050919050565b6000602082019050818103600083015261394a81613165565b9050919050565b6000602082019050818103600083015261396a816131cb565b9050919050565b6000602082019050818103600083015261398a81613231565b9050919050565b600060208201905081810360008301526139aa81613297565b9050919050565b600060208201905081810360008301526139ca816132d7565b9050919050565b600060208201905081810360008301526139ea8161333d565b9050919050565b60006020820190508181036000830152613a0a816133a3565b9050919050565b60006020820190508181036000830152613a2a81613409565b9050919050565b60006020820190508181036000830152613a4a8161346f565b9050919050565b60006020820190508181036000830152613a6a816134d5565b9050919050565b60006020820190508181036000830152613a8a8161353b565b9050919050565b60006020820190508181036000830152613aaa816135a1565b9050919050565b6000602082019050613ac660008301846136d3565b92915050565b600060a082019050613ae160008301886136d3565b613aee6020830187612d23565b613afb6040830186612d23565b613b0860608301856136d3565b613b1560808301846136d3565b9695505050505050565b600060c082019050613b3460008301896136d3565b613b4160208301886136d3565b613b4e6040830187612d23565b613b5b6060830186612d23565b613b6860808301856136d3565b613b7560a08301846136d3565b979650505050505050565b6000604051905081810181811067ffffffffffffffff82111715613ba357600080fd5b8060405250919050565b600067ffffffffffffffff821115613bc457600080fd5b601f19601f8301169050602081019050919050565b6000819050602082019050919050565b6000819050602082019050919050565b6000819050602082019050919050565b600081519050919050565b600081519050919050565b600081519050919050565b600081519050919050565b600081519050919050565b6000602082019050919050565b6000602082019050919050565b6000602082019050919050565b600082825260208201905092915050565b600082825260208201905092915050565b600082825260208201905092915050565b600082825260208201905092915050565b600082825260208201905092915050565b6000613cc782613d18565b9050919050565b6000613cd982613d18565b9050919050565b60008115159050919050565b60007fffffffff0000000000000000000000000000000000000000000000000000000082169050919050565b600073ffffffffffffffffffffffffffffffffffffffff82169050919050565b6000819050919050565b6000613d4d82613d54565b9050919050565b6000613d5f82613d66565b9050919050565b6000613d7182613d18565b9050919050565b82818337600083830152505050565b60005b83811015613da5578082015181840152602081019050613d8a565b83811115613db4576000848401525b50505050565b6000601f19601f8301169050919050565b613dd481613cbc565b8114613ddf57600080fd5b50565b613deb81613cce565b8114613df657600080fd5b50565b613e0281613ce0565b8114613e0d57600080fd5b50565b613e1981613cec565b8114613e2457600080fd5b50565b613e3081613d38565b8114613e3b57600080fd5b5056fea365627a7a72315820463e4f3e9c01df03bd4711d04ddac7297cdce24fb4001cdbf127cf1a3eca82c06c6578706572696d656e74616cf564736f6c63430005100040",
  "source": "pragma solidity 0.5.16;\r\npragma experimental ABIEncoderV2;\r\n\r\n// pragma experimental ABIEncoderV2;\r\n\r\nimport \"./ERC721Full.sol\";\r\n\r\ncontract Transaction is ERC721Full {\r\n    mapping(address => uint256[]) public UserTransactionID;\r\n\r\n    mapping(address => uint) public addressmap;\r\n\r\n    struct Trans {\r\n        uint256 ID;\r\n        uint PID;\r\n        address from;\r\n        address to;\r\n        uint value;\r\n        uint time;\r\n    }\r\n\r\n    Trans[] public Transactions;\r\n\r\n    constructor() public ERC721Full(\"Transaction\", \"TRANSACTION\") {}\r\n\r\n    function mint(\r\n        uint _productID,\r\n        address _from,\r\n        address _to,\r\n        uint _value\r\n    ) public {\r\n        // bytes32 hashed = HashCourse(_course);\r\n        // require(!OwnerCheck[_productID][_userID]);\r\n        uint _id = Transactions.length;\r\n        Transactions.push(\r\n            Trans({\r\n                ID: _id,\r\n                PID: _productID,\r\n                value: _value,\r\n                from: _from,\r\n                to: _to,\r\n                time: block.timestamp\r\n            })\r\n        );\r\n\r\n        _mint(msg.sender, _id);\r\n        UserTransactionID[_to].push(_id);\r\n    }\r\n\r\n    function getTx(address uad) public view returns (uint256[] memory) {\r\n        return UserTransactionID[uad];\r\n    }\r\n\r\n    function getAllTransactions() public view returns (Trans[] memory) {\r\n        return Transactions;\r\n    }\r\n\r\n    function getTotalTx(address uad) public view returns (uint) {\r\n        return UserTransactionID[uad].length;\r\n    }\r\n\r\n    function getBalance() public view returns (uint256) {\r\n        return address(this).balance;\r\n    }\r\n\r\n    struct SendEther {\r\n        uint256 tokenId;\r\n        address from;\r\n        address to;\r\n        uint256 amount;\r\n        uint256 time;\r\n    }\r\n\r\n    SendEther[] public sendEther;\r\n\r\n    event SendEtherEvent(\r\n        uint256 indexed tokenId,\r\n        address from,\r\n        address to,\r\n        uint256 amount,\r\n        uint256 time\r\n    );\r\n\r\n    function sendEtherSafely(\r\n        address _from,\r\n        address payable _to,\r\n        uint256 _tokenId,\r\n        uint256 _amount\r\n    ) public {\r\n        sendEther.push(\r\n            SendEther({\r\n                tokenId: _tokenId,\r\n                amount: _amount,\r\n                from: _from,\r\n                to: _to,\r\n                time: block.timestamp\r\n            })\r\n        );\r\n        emit SendEtherEvent(\r\n            _tokenId,\r\n            msg.sender,\r\n            _to,\r\n            _amount,\r\n            block.timestamp\r\n        );\r\n        require(\r\n            _isApprovedOrOwner(msg.sender, _tokenId),\r\n            \"Not approved to transfer token\"\r\n        );\r\n        require(\r\n            address(this).balance >= _amount,\r\n            \"Insufficient contract balance\"\r\n        );\r\n\r\n        safeTransferFrom(msg.sender, _to, _tokenId);\r\n\r\n        _to.transfer(_amount);\r\n    }\r\n\r\n    function getSentTransactions(\r\n        address sender\r\n    ) public view returns (SendEther[] memory) {\r\n        uint sentCount = 0;\r\n        for (uint i = 0; i < sendEther.length; i++) {\r\n            if (sendEther[i].from == sender) {\r\n                sentCount++;\r\n            }\r\n        }\r\n        SendEther[] memory sendTransactions = new SendEther[](sentCount);\r\n        uint index = 0;\r\n        for (uint j = 0; j < sendEther.length; j++) {\r\n            if (sendEther[j].from == sender) {\r\n                sendTransactions[index] = sendEther[j];\r\n                index++;\r\n            }\r\n        }\r\n        return sendTransactions;\r\n    }\r\n\r\n    function burn(uint _tokenId) public {\r\n        require(_isApprovedOrOwner(msg.sender, _tokenId));\r\n        _burn(ownerOf(_tokenId), _tokenId);\r\n    }\r\n}\r\n",
  "sourcePath": "C:\\Users\\ASUS\\Downloads\\contract\\contracts\\Transaction.sol",
  "compiler": {
    "name": "solc",
    "version": "0.5.16+commit.9c3226ce.Emscripten.clang"
  },
  "schemaVersion": "3.4.16",
  "updatedAt": "2024-03-24T07:46:36.363Z",
  "networkType": "ethereum",
  "devdoc": {
    "methods": {
      "approve(address,uint256)": {
        "details": "Approves another address to transfer the given token ID The zero address indicates there is no approved address. There can only be one approved address per token at a given time. Can only be called by the token owner or an approved operator.",
        "params": {
          "to": "address to be approved for the given token ID",
          "tokenId": "uint256 ID of the token to be approved"
        }
      },
      "balanceOf(address)": {
        "details": "Gets the balance of the specified address.",
        "params": {
          "owner": "address to query the balance of"
        },
        "return": "uint256 representing the amount owned by the passed address"
      },
      "getApproved(uint256)": {
        "details": "Gets the approved address for a token ID, or zero if no address set Reverts if the token ID does not exist.",
        "params": {
          "tokenId": "uint256 ID of the token to query the approval of"
        },
        "return": "address currently approved for the given token ID"
      },
      "isApprovedForAll(address,address)": {
        "details": "Tells whether an operator is approved by a given owner.",
        "params": {
          "operator": "operator address which you want to query the approval of",
          "owner": "owner address which you want to query the approval of"
        },
        "return": "bool whether the given operator is approved by the given owner"
      },
      "name()": {
        "details": "Gets the token name.",
        "return": "string representing the token name"
      },
      "ownerOf(uint256)": {
        "details": "Gets the owner of the specified token ID.",
        "params": {
          "tokenId": "uint256 ID of the token to query the owner of"
        },
        "return": "address currently marked as the owner of the given token ID"
      },
      "safeTransferFrom(address,address,uint256)": {
        "details": "Safely transfers the ownership of a given token ID to another address If the target address is a contract, it must implement `onERC721Received`, which is called upon a safe transfer, and return the magic value `bytes4(keccak256(\"onERC721Received(address,address,uint256,bytes)\"))`; otherwise, the transfer is reverted. Requires the msg.sender to be the owner, approved, or operator",
        "params": {
          "from": "current owner of the token",
          "to": "address to receive the ownership of the given token ID",
          "tokenId": "uint256 ID of the token to be transferred"
        }
      },
      "safeTransferFrom(address,address,uint256,bytes)": {
        "details": "Safely transfers the ownership of a given token ID to another address If the target address is a contract, it must implement `onERC721Received`, which is called upon a safe transfer, and return the magic value `bytes4(keccak256(\"onERC721Received(address,address,uint256,bytes)\"))`; otherwise, the transfer is reverted. Requires the msg.sender to be the owner, approved, or operator",
        "params": {
          "_data": "bytes data to send along with a safe transfer check",
          "from": "current owner of the token",
          "to": "address to receive the ownership of the given token ID",
          "tokenId": "uint256 ID of the token to be transferred"
        }
      },
      "setApprovalForAll(address,bool)": {
        "details": "Sets or unsets the approval of a given operator An operator is allowed to transfer all tokens of the sender on their behalf.",
        "params": {
          "approved": "representing the status of the approval to be set",
          "to": "operator address to set the approval"
        }
      },
      "supportsInterface(bytes4)": {
        "details": "See `IERC165.supportsInterface`.      * Time complexity O(1), guaranteed to always use less than 30 000 gas."
      },
      "symbol()": {
        "details": "Gets the token symbol.",
        "return": "string representing the token symbol"
      },
      "tokenByIndex(uint256)": {
        "details": "Gets the token ID at a given index of all the tokens in this contract Reverts if the index is greater or equal to the total number of tokens.",
        "params": {
          "index": "uint256 representing the index to be accessed of the tokens list"
        },
        "return": "uint256 token ID at the given index of the tokens list"
      },
      "tokenOfOwnerByIndex(address,uint256)": {
        "details": "Gets the token ID at a given index of the tokens list of the requested owner.",
        "params": {
          "index": "uint256 representing the index to be accessed of the requested tokens list",
          "owner": "address owning the tokens list to be accessed"
        },
        "return": "uint256 token ID at the given index of the tokens list owned by the requested address"
      },
      "tokenURI(uint256)": {
        "details": "Returns an URI for a given token ID. Throws if the token ID does not exist. May return an empty string.",
        "params": {
          "tokenId": "uint256 ID of the token to query"
        }
      },
      "totalSupply()": {
        "details": "Gets the total amount of tokens stored by the contract.",
        "return": "uint256 representing the total amount of tokens"
      },
      "transferFrom(address,address,uint256)": {
        "details": "Transfers the ownership of a given token ID to another address. Usage of this method is discouraged, use `safeTransferFrom` whenever possible. Requires the msg.sender to be the owner, approved, or operator.",
        "params": {
          "from": "current owner of the token",
          "to": "address to receive the ownership of the given token ID",
          "tokenId": "uint256 ID of the token to be transferred"
        }
      }
    }
  },
  "userdoc": {
    "methods": {}
  }
}